:10000000300E0020F56B0000516C0000556C0000B4
:10001000596C00005D6C0000616C00000000000085
:10002000000000000000000000000000656C0000FF
:10003000696C0000000000006D6C0000716C000035
:10004000756C0000296A0000796C0000316A0000BC
:100050005D6A00003B6A0000396A0000556A0000D2
:100060007D6C000081690000B16A0000B969000080
:10007000816C0000856C0000896C00008D6C0000B4
:10008000916C00009D690000956C0000996C000067
:100090009D6C0000A16C0000A56C0000A96C000024
:1000A000AD6C0000B16C0000B56C0000456A00004A
:1000B0004D6A00002F4F0000B96C0000BD6C0000BD
:0800C00007690000C16C00009B
:1000C8008B0013EB401313F184431A60704702004E
:1000D800880010EB421010F184400068704710F15E
:1000E800C0621160704710F180621160704770B58E
:1000F80004000D00160029002000FFF7F4FF31006E
:100108002000FFF7ECFF70BD006808407047012130
:1001180011FA00F0704738B50400B4F5004F01D269
:10012800012000E00020C0B2601CB0FA80F0D0F1DD
:100138001F0005002800FFF7EAFF401E844201D196
:10014800012000E00020C0B2280032BD70B50400D4
:100158000D00A54201D3002600E00126320010213F
:10016800DFF8B407FFF7ACFF32001821DFF82409E5
:10017800FFF7A6FF70BD10B51021DFF89C07FFF749
:10018800A6FF04001821DFF80C09FFF7A0FF010003
:100198008C4201D1012000E00020C0B2200010BD37
:1001A800DFF8001909680800704738B5DFF8F80863
:1001B80000F02BFB0500EDB22800072805D0082821
:1001C80007D100F06BFE040005E0FFF7E9FF04002B
:1001D80001E000200400200032BD10B4DFF8CC3864
:1001E8001B68002B01D0012200E0002241F6713388
:1001F800DFF8B8482360DFF824371B6813F0407332
:100208001900DFF81C37984207D2DFF818379842F0
:1002180003D35FF08073190001E000231900DFF8B1
:10022800FC361B6833F040730B43DFF8F04623605D
:10023800D2B2002A03D00023DFF87048236010BC34
:10024800704780B500F028FEFFF7C7FF01BD010029
:100258000F22CB1C934201D2C81C00E010000007FB
:10026800704770B5040000262000DFF82C1888427B
:1002780007D0DFF82818884203D0DFF834188842FE
:1002880000D1FFE7200000F0C0FA05002000DFF8E9
:100298000818884208D0DFF8041888420BD0DFF825
:1002A800101888420ED014E0DFF80808006810F033
:1002B800070005000DE0DFF80008006810F00700EF
:1002C800050006E0DFF8F407006810F007000500F5
:1002D800FFE7002D21D0022D08D003D3042D09D02B
:1002E8000CD31CE000F003FE060018E000F005FE49
:1002F800060014E000F0FEFD060010E0DFF89407A9
:100308000068C00104D500F0B7FD8008060003E0CE
:1003180000F0B2FD4008060001E0002006003000B1
:1003280070BDDFF87C170968C90704D4DFF8901797
:1003380009680142FAD1704710B50400200000F0A6
:10034800F0F8401C10BD38B504000D00691E2000EF
:1003580000F052F931BD2DE9F04104000D005FF0C5
:100368000008C4F30320C0B201280CD0022812D020
:1003780005280CD0062812D0072816D009281AD02C
:100388000A281FD022E0DFF8900506001FE0DFF8FA
:10039800380706001BE0DFF83407060017E0DFF82F
:1003A800300706000120804611E0DFF82807060024
:1003B800102080460BE0DFF8200706005FF480304D
:1003C800804604E0DFF8C808060000E00EE0C4F349
:1003D80004300700B8F1000F02D04046FFF7A1FF34
:1003E800EDB22A0039003000FFF76AFEBDE8F0815F
:1003F80038B5040014F47810002824D0B0F5003F74
:1004080035D0B0F5802F22D0B0F5002F2BD0B0F525
:10041800202F38D0B0F5402F77D0B0F5602F78D0A6
:10042800B0F5801F41D0B0F5901F44D0B0F5A01FA3
:1004380056D0B0F5C01F32D0B0F5D01F4AD0B0F5B5
:10044800F01F5CD069E000F029FD050067E000F0CE
:1004580025FD0500DFF884060068C0F30820401C6D
:10046800B5FBF0F55BE000F019FD050057E000F082
:1004780015FD0500DFF868060068C0F30820401C79
:10048800B5FBF0F54BE000F009FD0500DFF8AC071F
:100498000068C0F30420401CB5FBF0F53FE0DFF82E
:1004A800F805FFF7DEFE050039E0DFF80406FFF780
:1004B800D8FE050033E0DFF8E005FFF7D2FE0500BF
:1004C800DFF87C07006810F00F00FFF720FEB5FB8F
:1004D800F0F524E0DFF8C405FFF7C3FE05001EE0D1
:1004E800DFF8B805FFF7BDFE0500DFF8A8070068CC
:1004F80010F00300FFF70BFEB5FBF0F50FE0DFF897
:10050800B005FFF7AEFE050009E0FFF74EFE050057
:1005180005E0FFF745FE050001E000200500280082
:1005280032BD70B50400C4F303100500012D0CD0D2
:100538005ED3032D17D00FD3052D22D01AD3072D44
:1005480039D025D3082D49D052E0DFF84805006896
:10055800C0F3042006004DE0DFF8E0060068C0F3B1
:100568000420060046E0DFF82C050068C0F30060B0
:1005780006003FE0DFF864050068C0F308200600C5
:1005880038E0DFF85C050068C0F30820060031E0B9
:10059800DFF8040784420BD1DFF8A406006810F0E6
:1005A8000F0006003000FFF7B2FD401E060001E014
:1005B800002006001EE0DFF8E40684420BD1DFF8D5
:1005C800D406006810F0030006003000FFF79FFD16
:1005D800401E060001E0002006000BE0DFF84C0892
:1005E800844202D10020060001E00020060001E05C
:1005F80000200600300070BDF8B504000D00C4F3FB
:1006080003100700012F10D0C0F0FE80032F44D044
:1006180032D3052F64D051D3072F00F0C080C0F02B
:100628008780082F00F0D780EEE0202D01D201202E
:1006380000E00020C0B2FFF704FEDFF88814DFF8FE
:100648003C07FFF783FDDFF84C04006830F4F850EE
:1006580050EA0520DFF83C14086000F00DFC0600A5
:100668003000FFF7BAFDDFF88407FFF7C1FEDFF8B7
:100678005414FFF76BFDC7E0202D01D2012000E0E4
:100688000020C0B2DFF8B405006830F4F85050EA32
:100698000520DFF8A8150860B6E0022D01D2012078
:1006A80000E00020C0B2DFF8EC03006830F0807092
:1006B80050EA0560DFF8DC130860A5E0B5F5007FB7
:1006C80001D2012000E00020C0B2DFF81004006869
:1006D8006FF3102050EA0520DFF80014086093E05B
:1006E800B5F5007F01D2012000E00020C0B2FFF77D
:1006F800A8FDDFF8D013DFF88406FFF727FDDFF841
:10070800E00300686FF3102050EA0520DFF8D013EB
:10071800086000F0B1FB06003000FFF75EFDDFF86F
:10072800CC06FFF765FEDFF89C13FFF70FFD6BE0C3
:100738002000DFF8F816884204D0DFF85C158842FC
:1007480014D02BE0002D01D1012000E00020C0B220
:100758005FF48020FFF7E5FDDFF8D40600680009A4
:1007680000012843DFF8C816086017E0B5F5004F08
:1007780001D8012000E00020C0B22800FFF7CBFC20
:1007880005000420FFF7CDFDDFF8B4040068000978
:1007980000012843DFF8A8140860FFE734E0DFF819
:1007A800FC04844216D1092D01D2012000E000206A
:1007B800C0B22800FFF7AFFC05004020FFF7B1FDED
:1007C800DFF8D0040068800880002843DFF8C414EC
:1007D8000860FFE718E0DFF85406844213D1002DC3
:1007E80001D1012000E00020C0B25FF48020FFF7B3
:1007F80098FDDFF83C060068000900012843DFF88F
:1008080030160860FFE7FFE7F1BD0100012011F095
:100818000F031A001300012B08D0022B1ED0032B44
:1008280033D0052B4DD0062B62D070E0DFF80436AC
:100838001B6813F00703022B0AD00CD3042B01D03A
:1008480003D308E00223180007E00323180004E09C
:100858000423180001E0052318005AE0954B1B6893
:1008680013F00703012B04D0022B05D0042B06D06C
:1008780008E00323180007E00223180004E0092316
:10088800180001E00123180043E08B4B1B6813F0AC
:100898000703012B06D011D3032B0CD005D3042B4F
:1008A80006D00BE0032318000AE00223180007E033
:1008B8000923180004E00623180001E001231800AA
:1008C80027E07E4B1B6813F00703012B04D0022B93
:1008D80005D0042B06D008E00323180007E0022304
:1008E800180004E00923180001E00123180010E0B3
:1008F800DFF844351B6813F00103002B04D0012BEB
:1009080004D10823180001E00723180001E00023A0
:100918001800C0B27047000000400E4004000E40AE
:10092800015A620281BA8C012DE9F84F04000D00CA
:10093800032603275FF0000B14F00F008246504691
:10094800012806D002284CD0032864D0052855D0A9
:100958009CE0EDB22800022808D003280BD0042818
:100968000ED0052816D009281ED01EE00420060047
:10097800002007001AE0032006000120070015E008
:1009880002200600022007004E49DFF8F003FFF7B7
:10099800DDFB0BE001200600032007004949DFF8D2
:1009A800DC03FFF7D3FB01E072E071E001220121D3
:1009B8003800C0B200F096F8FFF743FCDFF87C047B
:1009C8000660DFF82804FFF713FD3E49FFF7BEFB7A
:1009D80000F0A8FA00F050FA80464046FFF7FDFB09
:1009E80054E0BBF1000F02D1DFF8C8B0FFE7EDB269
:1009F800062D01D0012000E00020C0B2BBF1000F9D
:100A080002D1DFF8B8B0FFE7EDB2062D01D0012022
:100A180000E00020C0B2BBF1000F02D1DFF898B0AF
:100A2800FFE7EDB22800012808D0022809D00328E2
:100A38000FD0062815D0092821D023E000208146B0
:100A480021E001220121002000F04CF8022081461B
:100A580019E001220121012000F044F8012081461B
:100A680011E000F009FA1749FFF770FB0122002195
:100A7800DFF85400FFF724FB0320814603E004203D
:100A8800814600E004E0CBF80090FFE7FFF773FB36
:100A9800BDE8F18F00410E400200180003001A0063
:100AA80044410E400C00002006000C0040000E409F
:100AB80005001E0080400E4084400E4088400E40D5
:100AC80040410E400048E801B0400E40C0400E4092
:100AD800E0400E40E8400E40F0400E400C410E4011
:100AE80008410E402DE9F84F04000D001600E4B24D
:100AF800002C29D0022C0CD01DD3042C12D02ED2BD
:100B080001208146022082460120070000208046FD
:100B180026E00420814608208246032007000220A0
:100B280080461DE0102081462020824605200700CF
:100B38000420804614E04020814680208246072019
:100B48000700062080460BE04FF4807081464FF482
:100B580000708246092007000820804600E06BE00C
:100B6800EDB2002D5DD05FF0000BE4B2022C16D17F
:100B7800DFF8D402006810F0300F10D1012083464E
:100B8800DFF8C4020068C00709D5DFF8BC020068B6
:100B980030F0300050F01000DFF8AC120860DFF8D9
:100BA800B002C0F800904146DFF8A802FFF78FFABC
:100BB8000028F8D0F6B2002E3CD03900DFF89402B5
:100BC800FFF785FA0028F8D0E4B2022C32D15FFA98
:100BD8008BFBBBF1000F2DD09B480068C00705D5E3
:100BE80001222021022000F003F903E00021022065
:100BF80000F0C6F8022000F025F80090012200213C
:100C08000220FFF76FFF0099022000F049F8904892
:100C1800C0F8009039008F48FFF759FA002809D129
:100C2800F8E78B48C0F800A041468A48FFF74FFA1A
:100C38000028F9D100F076F9BDE8F18F14410E4093
:100C480020410E400100C9B2012906D01DD3032955
:100C580009D014D304290CD017E07F4A1268D205B2
:100C6800D20D100013E0774A126812F07F021000CC
:100C78000DE07A4A126812F07F02100007E0784A05
:100C880012685205520D100001E000221000704752
:100C980050410E4028410E406006120070071400B3
:100CA80070B504000E00E4B2012C06D064D3032C06
:100CB8001AD045D3042C2DD05EE0B6F5007F01D2C2
:100CC800012000E00020C0B2F605F60D1A215C48AC
:100CD800FFF7FDF90028F9D15F480068400A400293
:100CE80030435D49086047E0802E01D2012000E0D2
:100CF8000020C0B216F07F0618215148FFF7E7F927
:100D08000028F9D14F480068C009C00130434D4957
:100D1800086031E0802E01D2012000E00020C0B23E
:100D280016F07F0619214648FFF7D1F90028F9D1B6
:100D38004A480068C009C0013043484908601BE0C0
:100D480044480068800810F0010090F00100C0B22B
:100D58003D48006830F0300050F010003A49086013
:100D6800C6F3C310FFF773FA050055EA06023D49BA
:100D78003648FFF7BCF9FFE770BD00000148E801FD
:100D880070B504000D00E4B2022C01D1012000E08E
:100D98000020C0B230212C48FFF7B6F9002803D153
:100DA8005FF44000060012E0EDB22800002808D0E9
:100DB800202802D0302804D007E05FF400000600A5
:100DC80005E05FF44000060001E0274806002148DE
:100DD80000683040B042FAD1700205D52348006857
:100DE800800A10F0010000E0012070BD0005080035
:100DF80070B504000D001600E4B2022C13D1EDB258
:100E0800002D06D04FF4806019490860EDB21948EA
:100E18000560F6B2002E06D02900C9B22000C0B283
:100E2800FFF7AEFF00E0012070BD00008009100050
:100E380030410E4094400E4070400E4074400E40C9
:100E480040410E4010400E4024400E4030400E40BD
:100E580060400E4090400E4020400E4018400E402A
:100E68009C400E40FF0700F0FF03C107A0400E4062
:100E7800A8400E4064400E4038B500F00FF804005A
:100E88001F480068C0F308200500681CB4FBF0F494
:100E98001C480460200032BD1B4870471B49096884
:100EA80011F0070102290CD00FD3042901D004D373
:100EB8000BE01749096808000AE04FF400410800F0
:100EC80006E014490968080002E0134909680800A7
:100ED80012490968C1F30421491CB0FBF1F07047BD
:100EE8000F48006850F470000D49086070474FF4CF
:100EF800004070474FF47A707047054800687047A3
:100F080008410E40240A002000F0490294400E4097
:100F180018000020140000201C00002000410E4092
:100F280088ED00E0DFF820000068DFF814100860A2
:100F3800DFF818000068DFF80C1008807047000020
:100F4800080A0020280A002090400E4094400E40D5
:100F58002DE9F04FA1B08046002017461D460291AA
:100F68000B900DF1440A6FF000490AE017F8011BD5
:100F78000298C0470028029000F0A7820B98401CF6
:100F88000B90387808B90B98A1E22528EED10020FB
:100F9800059006900790089009900A9001E040F0AB
:100FA800010017F8011F2029F9D023290DD02B297A
:100FB80004D02D2906D030290AD00CE040F00200D8
:100FC80080B2EEE740F00400FAE740F00800F7E7E7
:100FD80040F01000F4E72A290ED12968296051F859
:100FE800042B2960002A0D9204D5514240F00400D8
:100FF8000D9180B27F1C11E000210D9109E00D993F
:10100800494505D001EB810302EB430130390D91CD
:101018007F1C3A78A2F130010A29F0D339782E29B9
:1010280003D04FF0FF310C911DE017F8011F2A295A
:1010380007D1296829607F1C51F8042B29600C927C
:1010480011E000210C9109E00C99494505D001EB0C
:10105800810302EB430130390C917F1C3A78A2F1ED
:1010680030010A29F0D3ADF838000FF6704039780E
:1010780000F046FE08B117F8010B8DF83A009DF80C
:101088003A00682802BF39786829622005D06C28A0
:1010980004BF38786C2803D171208DF83A007F1C82
:1010A80011A8049017F8014BB4F1250029D01C3879
:1010B80000F0C280001F022840F2BE80133800F002
:1010C800E380093800F0B880801E00F04A81401E95
:1010D80000F02381401E022840F2AE80001F00F07D
:1010E8001C81401F79D0401E00F0CE80401E24D0C5
:1010F800C01E0BD0801E00F0C780C01E00F0C48048
:1011080039E125208DF8440001203DE12868286058
:1011180050F8046B286003960C9C002C04D53046CC
:1011280000F0FAFD044606E022460021304600F0B1
:101138000FFE00B1841B069427E1296829603C242E
:1011480051F8040B29600021CDE9000111A8039092
:10115800DDE90001049E11B908B90C9AB2B1020682
:10116800120FA0EB02123032D2B2631E3A2AA8BF85
:10117800273200099A5540EA0170090908BF00287A
:101188001C4603D0039AA3199A42E8D3A0190390E6
:10119800C4F13C010C980691814209DA401A089082
:1011A8004FF6EF71BDF838000840ADF83800ECE0B4
:1011B800002840F1EA809DF8380000F0140010285B
:1011C80040F0E3800D98059A801A089A801A441A0C
:1011D800012CC0F2DA800894D7E09DF83A00622822
:1011E8001AD0682806D06A280CD06C281CD0712820
:1011F80008D019E02868286050F8041B28600B986C
:101208000880C2E02868286050F8042B28600B98F2
:10121800C117C2E90001B8E02868286050F8041B2B
:1012280028600B980870B0E02868286050F8041B04
:1012380028600B980860A8E02868C01D20F0070205
:101248002A60D2E9000108322A60CDE900010029AC
:1012580002D505982D210AE0BDF83800810702D58E
:1012680005982B2103E0C00705D50598202100F833
:101278000A10401C059011A80599081803902146EA
:10128800684600F0E1F980E09DF83A006C280DD03E
:10129800712818BF6A2809D12868C01D20F00702E4
:1012A8002A60D2E9000108322A6005E0296829602D
:1012B80051F8040B29600021CDE900019DF83A009E
:1012C800682803D1DDE9000180B20BE0622803D170
:1012D800DDE90001C0B205E0742818BF7A2804D1FE
:1012E800DDE900010021CDE900019DF83800000783
:1012F8002ED5DDE90001002908BF002828D044F0D8
:101308002000782824D10598302100F80A10401CC4
:10131800411C059100F80A401AE09DF83A00294658
:1013280000F0D8F8CDE90001002902DA05982D214E
:101338000AE0BDF83800810702D505982B2103E0A3
:10134800C00705D50598202100F80A10401C059013
:1013580011A80599081803902146684600F0F1F88D
:1013680013E0012005902868286050F8041B2860C5
:101378008DF8441009E025208DF8440001200590DF
:101388001CB18AF80140022005900D980599401A71
:101398000899401A0699401A0999401A0799401A5B
:1013A8000A99441A9DF83800400710D42020012CCF
:1013B8008DF840000BDB2646012310AA69464046FB
:1013C80000F074FC002840F08080761EF4D1DDF82F
:1013D80014B0BBF1000F11AE0CD016F8011B029827
:1013E800C0470028029070D00B98401CBBF1010B3D
:1013F8000B90F2D130208DF84000089E012E09DBB9
:10140800012310AA6946404600F050FC00285CD130
:10141800761EF5D1DDF818B0039EBBF1000F0CD095
:1014280016F8011B0298C047002802904DD00B986F
:10143800401CBBF1010B0B90F2D130208DF840001D
:10144800099E012E09DB012310AA6946404600F0D7
:101458002DFC002839D1761EF5D103980699DDF8C0
:101468001CB00E18BBF1000F0BD016F8011B029828
:10147800C047029048B30B98401CBBF1010B0B907E
:10148800F3D130208DF840000A9E012E08DB01239D
:1014980010AA6946404600F009FCB0B9761EF6D19C
:1014A8009DF8380040077FF56CAD2020012C8DF8A1
:1014B8004000FFF666AD012310AA6946404600F0D9
:1014C800F5FB10B9641EF6D15BE54FF0FF3021B093
:1014D800BDE8F08F622826D068281DD06A2808D079
:1014E8006C2827D0712804D0742823D07A280CD0EF
:1014F80020E00868C01D20F007000860D0E900233C
:10150800083008601946104670470A680A6052F8A1
:10151800040B0A60002170470A680A6052F8040B3D
:101528000A6000B20BE00A680A6052F8040B0A600D
:1015380040B204E00A680A6052F8040B0A60C11756
:1015480070472DE9FA4E05460A462F696F2A08BFEB
:10155800082405D041F02000782814BF0A2410245C
:101568003C26D5E90001642A18BF692A81468A46C3
:1015780005D1002903DAD9F100096AEB4A0ABAF160
:10158800000F08BFB9F1000F0CD1286B50B9082C17
:1015980036D195F83800000732D530203B2687F839
:1015A8003B002DE0E31748465146224600F0FCFB7D
:1015B800A4FB0023A9EB02023032D2B2A6F1010B40
:1015C8003A2A5E4603DB9DF80030513B9A180BF827
:1015D800072081465FEA010A08BFB9F1000F03D06E
:1015E800E868F1198842DDD3082C09D195F838004C
:1015F800000705D5F05D302802D0761E3020F05562
:10160800C6F13C00A861F119E960296B884208DA43
:10161800081A28624FF6EF71288F08402887BDE81E
:10162800F38E00290ED595F8381001F01401102911
:1016380008D1696B6A69891A2A6A891A0E1A012EF1
:10164800A8BF2E62BDE8F38E2DE9F24F04468EB096
:10165800D4E90001CDE9020104AF9DF8380040F05B
:10166800200BBBF1610F0AD0206B002848BF062071
:1016780004D408BFBBF1670F01D101202063616862
:10168800C1F30A5040F2FF7290421CD1080304BF14
:101698002068002809D10320A0619DF8380061382E
:1016A8001A2836D30FF2486108E00320A0619DF89C
:1016B800380061381A2829D30FF22C61E068032218
:1016C80000F0EAFBBEE1012816DA204600F01FFC14
:1016D800012811DB00250020BBF1610F20D1E16852
:1016E800302201F8012B4A1CE2609DF83820612A5B
:1016F8000CBF782258220FE0626840F2FE3161F395
:101708001E52451A62604FF0FF30E5E70FF2D451E0
:10171800D4E70FF2D851D1E70A706169891C616179
:1017280010B90026002584E1BBF1610F40F09880D4
:10173800206B00284CBF2126461CD4E900ABDDE90C
:1017480002010022002300F003FC36B23ABF8BF0FE
:101758000040CDE902A0CDE902AB06F101082D1F3A
:10176800B8F1010F8DF810200DF1110736DBDDE916
:1017780002010022002300F003FC2FD21C2102A842
:1017880000F016FCDDE9020100F09CFCA8F1070856
:10179800B8F1010F814609DB00F0C0FC02460B4698
:1017A800DDE9020100F0D2FCCDE90201F81D0721B4
:1017B80005E009F00F0200F8012D4FEA2919B9F1E7
:1017C800010F01DB491EF4D5491E5CBF002200F859
:1017D800012DF9D5C71DB8F1010FC8DA0DF11100B7
:1017E800391AB142B8BF0E4636B230000DF11107B2
:1017F8002FD4884206DA04A9411849780829A8BFD5
:101808000F2100DA002104AA821800E0761E12F8DF
:101818000139401E8B42F9D00F2904D104A941187F
:101828004A78521C4A70002802D504AF761C2D1D38
:1018380036B2701E0DD4C1190A783032D2B23A2AA3
:1018480003DB9DF838303A3B9A18401E01F801290D
:10185800F2D5206B002840F1EC80701E2063E8E090
:10186800DDE902010022002300F072FB3CBF81F099
:101878000041CDE902012DB247F2975068434B4928
:10188800DFF82C9190FBF1F52DB2C5F1070ABAF1FA
:10189800010F90461CDBDDE902675FEACA7007D5D5
:1018A80042464B463046394600F010FD06460F4684
:1018B8004046494642464B464FEA6A0A00F006FD52
:1018C800BAF1000F80468946E7D1CDE9026724E0E6
:1018D800CAF1000A0026374F14E05FEACA7007D53C
:1018E80042464B463046394600F0F0FC06460F4665
:1018F8004046494642464B4600F0E8FC4FEA6A0A31
:1019080080468946BAF1000FE7D1DDE90201324687
:101918003B4600F0ADFDCDE90201BBF1660F0CBFFF
:1019280005F10A000620216BDFF88C904618142E6A
:10193800A8BF132630208DF810000DF11107012ED5
:101948003CDBDDE9020100F0D3FB07F108010422CA
:101958000A23B0FBF3F303EB8307A0EB4700303017
:1019680001F8010C0A20B3FBF0F000EB8007A3EBB1
:1019780047033033521E01F8023DE9D1083E012EDB
:1019880001F10807DBDBDDE9020100F0B1FB00F043
:10199800CFFB02460B46DDE9020100F0D7FB00222F
:1019A8004B4600F093FCCDE90201CAE7A08601008E
:1019B800000024400000F03F84D797410DF111004A
:1019C800381A0DF1110702E0401E6D1E7F1C397890
:1019D8003029F9D0BBF1660F02D12DB2691C04E0A1
:1019E800BBF1650F0CBF01210021226B8E1836B2A6
:1019F800B042B8BF064636B231001AD4814204DA82
:101A0800C85D3528A8BF392000DA3020CA19521E0F
:101A180000E0761E12F80139491E8342F9D03928B0
:101A280002D1C85D401CC855002902D57F1E761C0E
:101A38006D1C2DB29DF83810009533B23A462046F9
:101A480000F003F80FB0BDE8F08F2DE9F04305462C
:101A580085B01E46D5F83080012E8946174602DA31
:101A680001260FF2902749F02000BDF93040662882
:101A780008BF641C17D0672840F0828014F1040F57
:101A8800C0F28480444580F2818095F83800641C57
:101A9800000702D44645B8BFB04624B2B8EB0408E4
:101AA80048BF4FF0000824B2E868A969012C25DA7C
:101AB8004A1C30230B54B8F1010F03DA95F838109B
:101AC800090702D52E211154521CAA6118EB040FE4
:101AD800B8BFC8F1000424B26142A0446962B045AD
:101AE800B8BF4646AB6936B2EE6132463946181879
:101AF80000F0D2F9A8EB0600A862C0E00818A642D8
:101B080018DA3246394600F0C7F9A9697118A01BDE
:101B1800B8F1010FA961686203DA95F83800000787
:101B280005D5EA682E208854E869401CE861C5F8A4
:101B38002880A4E02246394600F0AEF9A8692018AA
:101B4800361BB8F1010F03DA95F83810090703D5E9
:101B5800EA682E218154401C36B2A861B045B8BF4E
:101B68004646E868AB6936B23246E119181800F003
:101B780093F9A8693018A861A8EB060068627EE0AE
:101B8800B9F1610F16D14FF0700918E0464504DA33
:101B980095F83810090758BFB046B8F1010848BF92
:101BA8004FF00008B9F1670F14BF4FF045094FF027
:101BB800650904E0B9F1410F08BF4FF05009A96960
:101BC800E8684A1CAA61B8F1010F17F8013B0B54E9
:101BD80003DA95F83810090717D5531CAB612E2185
:101BE8001154B8F1010F10DB761E36B2B045B8BFFC
:101BF800464636B232463946181800F04DF9A869FB
:101C08003018A861A8EB06006862E868A969091895
:101C1800200081F8009003D42B2048708F1C03E02B
:101C28002D224A708F1C644200260DF1080808E036
:101C38000A22684600F047FD019808F8010B761C57
:101C4800009C21B20129F3DA022E06DA49F02000BD
:101C5800652804BF302007F8010B4EB9302007F87B
:101C6800010B07E0761E02A8305C303007F8010B44
:101C7800012EF7DAE868A9690818381AE86195F8B2
:101C8800380000F0140010280DD16869A9690818F7
:101C9800696A0818E9690818A96A0818696B884206
:101CA800BCBF081A286205B0BDE8F083F8B5044641
:101CB8000D4616461F46002077B116F8011BA86886
:101CC800A047A86030B1E86A401CE86200207F1E87
:101CD800F3D1F2BD4FF0FF30F2BD0000686A6C74BA
:101CE8007A4C00006E616E004E414E00696E6600CF
:101CF800494E460030000268531C0360117070475B
:101D08000278C9B28A421AB11CBF10F8012FF9E74C
:101D180018BF00207047000000F10103810704D0BC
:101D280010F8011B89B18107FAD10268B2F10131BB
:101D3800914311F0803F04BF50F8042FF6E710F8E4
:101D4800011B11B110F8011BFBE7C01A7047000016
:101D5800C9B2830706D0521E22D310F8013B99421C
:101D6800F7D11FE0083A13D302F1040241EA012136
:101D780041EA014150F8043B121F21BF4B40A3F137
:101D8800013C2CEA030C1CF0803FF3D0C9B2001FC1
:101D9800083210F8013B521E28BF91EA030FF8D809
:101DA80018BF0120401E70471B4213D1094236D18B
:101DB8002AB18446B0FBF2F002FB10C2704700F073
:101DC80089BCFCD30022002370470B0002000021CD
:101DD80000207047904271EB030CF6D370B5B1FA4E
:101DE80081F4B3FA83F52C1BA340C4F1200532FA21
:101DF80005F63343A2405FF00046E64002E05B0888
:101E08005FEA3202841A71EB030524BF2046294693
:101E18007641F4D302000B003000002170BD012A86
:101E2800CFD970B5140C20D0B1FA81F4B2FA82F58A
:101E3800C4F120046419B4F12006D6D3B2405FF08F
:101E48000044F440002502E052085FEA3303C61A52
:101E580071EB020E24BF3046714664416D41F3D3E5
:101E680002000B002000290070BD0C46B1FBF2F106
:101E780002FB11452D0445EA1045B5FBF2F402FBBF
:101E8800145580B240EA0545B5FBF2F002FB10524A
:101E980040EA044070BD000062B38B0708D0521EB0
:101EA80011F8013B00F8013B00F024808B07F6D1C4
:101EB800830740F0208000BF103A07D330B4B1E860
:101EC8003810103AA0E83810F9D230BC530724BFB4
:101ED800B1E80810A0E8081044BF51F8043B40F8E6
:101EE800043BD20724BF31F8022B20F8022B44BF51
:101EF8000B7803707047083A07D3B1E80810083A1E
:101F080040F8043B40F804CBF7D25307E4E730B479
:101F1800436803F0004201211B031B0B436004BF0D
:101F28000368002B08D10DE00368DD0F45EA44047F
:101F380044605B000360491E4468E302F4D5230350
:101F48001B0B436043681A434260084630BC704725
:101F58004FF4001C1CEB410F94BF1CEB430F09E02E
:101F680041EA030C50EA4C0C52EA0C0C03D2994299
:101F780008BF9042704714BF8B42824270470000EE
:101F88004FF4001C1CEB410F94BF1CEB430F09E0FE
:101F980041EA030C50EA4C0C52EA0C0C03D28B4277
:101FA80008BF8242704714BF9942904270470000B0
:101FB80070B504460D466068C0F30A5040F2FF71E0
:101FC800884207D16068000304BF2068002817D042
:101FD800022070BD20B92046FFF799FF012866DA74
:101FE800012D0FDB40F2FF71091A8D420AD3606898
:101FF80000284CBF9FED2F0B9FED300B84ED000B9D
:10200800012070BD4142A942616806DA6FF31E5192
:10201800401941EA0050606040E0401E636845197D
:10202800012205F1350062F31F53352801F0004104
:10203800636003D361600020206070BD002015F14B
:102048001F0F04DA206823600022203562606A428C
:1020580012D0401E25688041C2F12003C0439D4034
:1020680045EAD07025686668D54006FA03F32B4325
:1020780023606368D340636062680A43B0F1004F2D
:10208800626003D80DD12078C0070AD52068401CAB
:102098002060206828B96068401C60604FF0FF30FD
:1020A80070BD6068884204BF20680028F6D100200F
:1020B80070BD00BF000000000000F0FF000000003D
:1020C8000000F07FF446400D40EAC120490006D2E6
:1020D80000F014F8004248BF6FF00040604700F07D
:1020E8000DF84FF0004188428CBF084640426047D7
:1020F800400D40EAC120490080F00D8040F00040CA
:10210800490DA1F58061491C05D4D1F11F0154BFC7
:10211800C840C01770474FF000007047010040F1F9
:102128000980F446404200F005F851F0004160474C
:10213800010000BF09D0B0FA80F18840C91CC1F580
:102148008461090501EBD02140057047F0B44FF0D8
:10215800004591EA030F44BF6B4000F0C7BA00BFC7
:10216800841A71EB030604D26E40001BB1411219A8
:1021780073414FF4001C1CEB410F34BF7CEB43064A
:1021880084E00C0DA4EB1356362E7DDC012E43DCC7
:1021980045EAC32343EA525312BFD20292025B08B4
:1021A800240545EAC12141EA5051D2EBC0209941AA
:1021B80025D407D1B0FA80F610FA06F164D00020D1
:1021C800203608E0B1FA81F6B140C6F1200220FAC3
:1021D80002F21143B0404FEAF474B4EB465434F0C1
:1021E80001064FEA74040AD8D6F50016760D04F0F5
:1021F8000044F04061FA06F25040F1404840C00AFD
:1022080040EA415021F0004128BF5FEA500550F1F3
:10221800000044EBD12137E045EAC323DB0A45EA55
:10222800C121C90AB6F120050EDD42EA0242120CAC
:10223800C5F1200603FA06F6EB4042EA06056D42B0
:10224800984161F100010DE062FA06F5F24055404F
:1022580063FA06FC82EA0C02F3405A406D42904150
:1022680061EB030111F4801F05D1641E620502D0E1
:102278006D004041494121F48011430875F1004344
:1022880050F1000041EB0451F0BC70471CEB410FCA
:1022980015D223F0004352EA43060BD04FEA4C0C08
:1022A800BCEB410F04D80C0D661E342EB7DDEBE7EE
:1022B800801A994150EA410608BF0021E4E708BFA7
:1022C8001CEB430F28BF6FF00001DDE7B0B581EAD2
:1022D800030C0CF0004C40F2FF7515EA11541DBFB9
:1022E80015EA1357AC42AF4239E0E41923EA4553E3
:1022F80043F48013C90241F0004141EA505EC7022D
:102308001100A7FB020200284FF00000EEFB01209D
:102318004FF00001E3FB072118BF42F0010240180B
:1023280000214941E3FB0E01A4F580640F0302D2AA
:1023380052004041494154F101046CDD470872F1F3
:10234800004250F1000051EB0451A1F580115CBF2F
:1023580041EA0C01B0BD4CEA05510020B0BD05EAC8
:102368001357AC4214BFAF4241E050EA410E1CBFC4
:1023780052EA430E02E061460020B0BD24423C44CC
:102388001BD15FEA070EF6D0090302BF0146002001
:10239800AEF1140EB1FA81F7AEEB070401FA07FEAD
:1023A8000C37C7F1200100FA07F7C8404EEA000EC3
:1023B80023EA455343F48013A2E733F00043B3FA0A
:1023C80083F704BFB2FA82FE77440B3FE41BB7F1F0
:1023D800200E2FBF02FA0EF3BB40C7F1200E22FADF
:1023E8000EFE38BF43EA0E03BA40641C82E750EA87
:1023F800410E14BF52EA430E6FF000014FF400176C
:1024080017EB430F8ABF194617EB410FB5E74CEAA4
:1024180005510020B0BDD4F10104B4F120070FDA52
:10242800C4F12007520828BF42F0010210FA07F54C
:1024380001FA07F7E1BF2A43E0403843E1400FE0E3
:10244800352C98DCC7F1200452EA400220FA07F242
:1024580018BF42F0010231FA07F0A1400A430021F7
:1024680072F1004250F1000051EB0C01B0BD0000C8
:102478002DE9F04140F2FF7581EA030C0CF0004CA5
:1024880015EA11541DBF15EA1357AC42AF42E9E0F3
:10249800BC41C1F31301C3F31303801A994143F4F8
:1024A800801304D2641E4000494180185941C90272
:1024B80041EA5051B1FBF3F603FB1611A2FB067576
:1024C800D7EBC020A94102D2761E80185941C90213
:1024D80041EA5051B1FBF3FE03FB1E11A2FB0E753E
:1024E800D7EBC020A94103D2AEF1010E80185941A3
:1024F800890241EA9051760546EA8E2EB1FBF3F641
:1025080003FB1611A2FB0675D7EB8020A94102D266
:10251800761E80185941C90241EA50514EEA060E0A
:10252800B1FBF3F603FB1611A2FB0675D7EBC0202F
:10253800A94102D2761E80185941C90241EA505178
:10254800B1FBF3F703FB1711A2FB0735D3EBC02050
:10255800A94167F100070CBF004247F0010766F385
:10256800D5274FEA1E31B80814F5806414DDBD077D
:1025780075F1004250EB0E5051EB045111F5801FDC
:102588005CBF41EA0C01BDE8F0814CF07F6141F08D
:10259800E0410020BDE8F081BD076D0840EA0E501B
:1025A80041F48011D4F10104B4F120060ADAC4F12F
:1025B80020060200E04001FA06F3E1401843B24069
:1025C80015430EE0342C14DCC6F1200445EA40051E
:1025D8006D0820FA06F2154321FA06F0A1400D43D2
:1025E800002175F1004250F1000051EB0C01BDE8EB
:1025F800F08100205FEA0C01BDE8F081CFB99218A4
:102608005B41B3FA83F704BFB2FA82F6BF190B3FF6
:10261800B7F120062FBF02FA06F3BB40C7F1200628
:1026280022FA06F638BF3343BA401CB1E419641ED7
:102638002FE77F4231F00041B1FA81F404BFB0FACC
:1026480080F6A4190B3CB4F120062FBF00FA06F15E
:10265800A140C4F1200620FA06F638BF3143A04055
:102668003C1B16E7AC421ABF05EA1357AF4214E009
:1026780050EA41061CBF52EA4306BFE750EA410749
:10268800304661461CBF41EA0551BDE8F08152EA77
:10269800430C08BFC143BDE8F08100204FF4001689
:1026A80016EB410F98BF16EB430F08BF16EB410F0F
:1026B80024BFC14305E016EB430F0CBF61464CEA4B
:1026C8000551BDE8F08191FBF2F303FB1211C0E95B
:1026D8000031704770470000F0B44FF0004591EAB0
:1026E800030C44BF6B40FFF73BBD00BF841A71EB7E
:1026F800030603D2001BB141121973414FF4001CA9
:102708001CEB410F34BF7CEB430443E00C0DA4EBFE
:102718001356352E50DC45EAC323DB0A45EAC121AE
:10272800C912B6F120050DDD63FA05F6EB4086EA1D
:102738000305124218BF45F00105C01851F1000108
:102748000CD213E062FA06F5F2405540F3415A40C4
:10275800B340F3405A408018594107D349085FEA0B
:1027680030005FEA350528BF45F0010501F5801105
:10277800420875F1004250F1000041EB0451F0BCF1
:102788004FF4001C1CEB410F38BF70470020090DA7
:10279800090570471CEB410F10D252EA43060BD0D3
:1027A800BCEB410F05D80C0DAB43661E342EB5DDCE
:1027B80002E0AB4380185941F0BC7047F0BC704749
:1027C8002DE9F8452DED088B0FB486B040F2FF7166
:1027D80007989DED080B8DED040BC0F30A50884255
:1027E80008D107980024000305BF06980028022591
:1027F800012512E0012807DA06A8FFF788FB01285F
:1028080002DB0024002508E0079A40F2FE3161F35C
:102818001E520792441A4FF0FF35002104A800F019
:102828002FFC1A9F06460FB10020388036B9DDE923
:1028380008230020002100F061FC12D0002D13D5E0
:1028480024B2012C15D1DDE906230020DFF88C1312
:1028580000F054FC05D0012E0BD1DF4900F04EFCEE
:102868003ED10AB0CD49E8E1022D04D1DDE90601E7
:10287800E2E1012E6FDB022E08BFDDE9080100F05E
:10288800DB81012D2AD107980028099806D4002851
:1028980054BF9FEDD50B9FEDD60BCBE100280ED48E
:1028A80056B94FF0FF3104A800F0EAFB002848BFF2
:1028B8009FEDD10B00F1BE819FEDCB0BBAE156B96C
:1028C8004FF0FF3104A800F0DBFB002848BF9FED64
:1028D800B40B00F1AF819FEDC60BABE1012E11D116
:1028E8000998002824B206D4012CACBF9FEDBE0B7A
:1028F8009FEDBF0B9EE1012CACBF9FEDBD0B9FED83
:10290800BA0B97E10998002810D466B94FF0FF3147
:1029180004A800F0B5FB002842BF079800289FEDE7
:10292800A00B00F187819FEDB20B83E100F0F6FB6D
:102938002221016066B94FF0FF3104A800F0A0FB26
:10294800002842BF079800289FEDAB0B00F1728169
:102958009FEDA50B6EE10798002848BF002E0CD507
:1029680000F0DCFB212101600AB04FF0FF30BDEC24
:10297800088B6FF00041BDE8F485DDE9060100220F
:102988000023FFF7FDFA38BF002509D381F0004185
:10299800CDE906014FF0FF3104A800F071FB0546B0
:1029A800012C13D1DDE906017F4A804BFFF7D0FAED
:1029B8000CD2DDE9062300204FF08041FFF786FCAA
:1029C800CDE9060100269FED7A8B1CE0DDE90623A0
:1029D80000207949FFF77AFC9FED788B53EC182B90
:1029E800FFF77AFEFFF76EFBA0F120063046FFF7EF
:1029F80095FB0022734BFFF769FC53EC182BFFF78C
:102A08006BFE41EC180B0FF2582000EB461ADDE97B
:102A1800060153EC182BFFF799FBDDE9062341EC7F
:102A2800190B51EC180BFFF757FE02460B4651ECF9
:102A3800190BFFF71DFD41EC1A0B53EC1A2BFFF78E
:102A480045FC41EC1B0B8DED069B00F06DFB53EC38
:102A58001B2BFFF73BFCDDE90623FFF777FB064658
:102A6800884600204D4953EC182BFFF76FFB0022D6
:102A78004FF08043FFF72AFC32464346FFF72CFE0F
:102A880053EC1A2BFFF722FCDDE90623FFF724FE9F
:102A980041EC180B4C4A4D4BFFF7EAFCCDE9040119
:102AA8002046FFF73BFB41EC190BDAE9000153EC38
:102AB800192BFFF711FEDDE90423FFF70DFECDE921
:102AC8000401DDE90823FFF701FCCDE9020100223A
:102AD8003F4BFFF73DFAC0F0938001223D4BFFF7D3
:102AE8004FFA40F2918000220023FFF731FADDE926
:102AF800022339BF0020384900203849FFF7ECFD90
:102B0800FFF7E0FA0446DDE9080153EC182BFFF75C
:102B1800DDFBCDE90201DAE90223DAE90401FFF776
:102B2800DBFDDDE90823FFF7D1FB9FED2D8B53EC8F
:102B3800182BFFF7CBFBDDE90223FFF7CDFDCDE92D
:102B48000201DAE9002351EC190BFFF7C5FDDDE9B5
:102B58000823FFF7BBFB064688462046FFF7DEFA48
:102B680002460B4630464146FFF7F0FA53EC182B65
:102B7800FFF7ACFBDDE90223FFF7AEFDCDE902016B
:102B88000FB13C80002400940022044B02A800F0FE
:102B980023FBA8B3012837D042E000BF0000F03F74
:102BA8000000000000000080CD3B7F669EA0E63F4D
:102BB800000000000000F03F00005040000000004E
:102BC8000000E03F0000903FEF39FAFE422EE63F5A
:102BD8000000E0C00000E0400000E0BF0000E03F6F
:102BE800EF39FAFE422EE63F000000000000F07FB9
:102BF8000000000000000000000000000000F0FFDE
:102C08000020CDE9020007E00020014902E000BFF2
:102C18000000F07FCDE9020100F080FA2221016076
:102C2800002D1DBFDDE9020181F0004141EC100BD0
:102C38009DED020B51EC100B0AB0BDEC088BBDE802
:102C4800F48580B50020009053EC112B51EC100B4B
:102C5800FFF7B6FD41EC100B01BD000000000000BD
:102C6800000000000000F0BF00000000000000802D
:102C780000000000000000800000000000000000CC
:102C8800000000C05294EEBF00000048204E51BE24
:102C9800000000F86467BCBC0000000000000000F1
:102CA800000000208133EDBF00000080B3DB14BEBC
:102CB800000000506706A3BC0000000000000000F0
:102CC800000000D0E9DCEBBF00000008C39259BE49
:102CD80000000080B0D3B8BC000000000000000075
:102CE80000000070F98FEABF000000C0A51028BEE0
:102CF800000000E8BFC0B0BC0000000000000000F9
:102D080000000070284CE9BF00000060134B42BE71
:102D1800000000C03D20B8BC00000000000000001A
:102D280000000050FA10E8BF000000C05FF62BBE9C
:102D3800000000905C71A7BC0000000000000000CB
:102D480000000020FCDDE6BF000000C0F8F154BE22
:102D580000000018E9F6B9BC0000000000000000FF
:102D6800000000D0C3B2E5BF00000070E43254BEDA
:102D780000000050DB06B4BC0000000000000000AA
:102D880000000010EF8EE4BF00000020F36252BE86
:102D9800000000C02A879ABC000000000000000064
:102DA800000000B02272E3BF000000F0E8E056BE69
:102DB80000000028352DBDBC000000000000000008
:102DC800000000000A5CE2BF000000B0FA8E41BEBD
:102DD80000000040AE6FBDBC000000000000000015
:102DE80000000000564CE1BF000000F015CD5FBEAA
:102DF80000000000141C90BC00000000000000004F
:102E080000000040BD42E0BF00000030F93457BE6A
:102E1800000000E06C1E93BC0000000000000000F1
:102E2800000000E0F57DDEBF000000B08A535EBE02
:102E380000000080DA77AABC000000000000000053
:102E4800000000C09D81DCBF00000000FFA226BE7C
:102E58000000006057E2B0BC000000000000000065
:102E680000000060F98FDABF000000580A8151BEE7
:102E7800000000F05F60B8BC000000000000000027
:102E88000000000098A8D8BF000000607A7F45BE07
:102E9800000000D05433A3BC000000000000000074
:102EA800000000600FCBD6BF000000D091CB40BE21
:102EB800000000406D1BA0BC0000000000000000E6
:102EC800000000A0FBF6D4BF00000098C5CE52BE9B
:102ED800000000003A397EBC00000000000000003D
:102EE800000000E0FE2BD3BF0000004073872BBE1C
:102EF80000000000926879BC00000000000000009B
:102F080000000040C069D1BF00000058F16353BE03
:102F180000000080438D7CBC000000000000000021
:102F280000000080D85FCFBF000000181F8354BE88
:102F3800000000B03F42A2BC0000000000000000FA
:102F48000000008067FCCBBF00000060FAFF53BEA2
:102F580000000050E00DB8BC0000000000000000B8
:102F68000000000098A8C8BF000000607A7F35BE46
:102F7800000000C0543393BC0000000000000000B3
:102F880000000000DC63C5BF00000058D6FF54BE37
:102F980000000000396490BC000000000000000040
:102FA800000000C0AD2DC2BF00000080A45915BEAE
:102FB800000000E0484BABBC00000000000000002F
:102FC800000000801A0BBEBF00000050BF3C5ABE74
:102FD800000000A0B364B6BC0000000000000000C0
:102FE8000000008004D6B7BF00000040BBCF36BE4B
:102FF8000000008076CEA8BC0000000000000000A1
:103008000000008032BBB1BF000000402A0043BE70
:1030180000000028C60CBDBC000000000000000035
:10302800000000009473A7BF000000182B3B59BE96
:10303800000000C0E55DA5BC000000000000000025
:1030480000000000EE4397BF000000A0E6C340BEAA
:1030580000000020958DB5BC0000000000000000B5
:103068000000000000000080000000000000008058
:1030780000000000000000800000000000000000C8
:103088004268C2F30A5240F2FF739A4207D141687C
:10309800090303BF00680028012002207047436825
:1030A8005B0004BF0368002B25D040F233439A1A13
:1030B800521A012A1FDB352A06DB416801F000415C
:1030C80041600021016013E0012102F01F039940D3
:1030D800491E920607D5426811404A40426002687C
:1030E8001143002202E0026811404A40026011B117
:1030F8004FF0FF30704700207047000090420CD11D
:1031080041EA030C50EA4C0C07D0994205D14FF420
:10311800001C1CEB410F38BF89427047014800F082
:10312800BEB900002000002080B52DED028B41ECD7
:10313800180B53EC182B1A481A49FFF7C7F81A4A04
:103148001A4BFFF7C9FA53EC182BFFF7BFF8184AC8
:10315800184BFFF7C1FA53EC182BFFF7B7F8164ACC
:10316800164BFFF7B9FA53EC182BFFF7AFF8144AD0
:10317800144BFFF7B1FA53EC182BFFF7A7F8124AD4
:10318800124BFFF7A9FA53EC182BFFF79FF8BDEC89
:10319800028B0F4A0F4BBDE80050FFF79DBA0000A5
:1031A800F7DE29BFD8F8C23FF4B3FECC1A99C33F63
:1031B80062CB68D96F46C73FC6C912DAC471CC3F23
:1031C8004AE98A942449D23FF75F97999999D93F58
:1031D800BC5555555555E53F2DE9704C04462DED28
:1031E800088B94ED009B43EC182B51EC190B00F065
:1031F80057F9064651EC180B00F052F931000E9DB4
:1032080006D500284DD4022805D184ED008B42E173
:10321800022EF8D121E050B951EC190B0022344BA1
:10322800FFF76CFF0FD084ED008B002033E10128FD
:1032380018D151EC190B00222E4BFFF75FFF18BF76
:1032480084ED008B51D1FFF769FF212101604FF018
:10325800FF306FF00041C4E90001BDEC088B02208B
:10326800BDE8708C7EB984ED008B29462046FEF7B8
:103278009FFE040018BF012C40F00C81FFF74EFFA1
:103288002221016006E151EC190B0022184BFFF7CF
:1032980035FF0DD151EC180BFFF718F8C4E9000100
:1032A80023E051EC190B0022134BFEF751FE0BD211
:1032B80051EC180B0023FFF709F8C4E90001BDEC35
:1032C800088B0020BDE8708C01220C4BFEF758FEDD
:1032D80016D851EC180B0022054BFEF7F7FFC4E98E
:1032E8000001FFF71BFF222101600120D3E000BF8E
:1032F8000000F07F0000F0FF00C89CC000C89C40A0
:103308003B4A3C4BFEF7E2FF00220023FEF720FE7B
:1033180034BF9FED390B9FED3A0B53EC102BFFF7A1
:10332800DBF9FEF7CFFE0646FEF7F8FE41EC1A0B76
:103338004FF07842344BFEF7C9FF02460B4651EC7A
:10334800190BFEF703FF82468B4653EC1A2B2F48C6
:103358002F49FEF7BBFF02460B4650465946FEF77B
:10336800F5FE6FF001022B4BFEF70AFE41EC190B3C
:1033780005D80022284BFEF7EBFDC0F07D8053EC0A
:10338800192BFEF7A3FF41EC1A0B244A244BFEF736
:103398009DFF244A244BFFF79FF953EC1A2BFEF7A5
:1033A80095FF41EC1B0B51EC1A0B204A204BFEF702
:1033B8008DFF204A204BFFF78FF953EC1A2BFEF7AD
:1033C80085FF00221D4BFFF787F953EC192BFEF7F9
:1033D8007DFF41EC190B51EC1B0B53EC192BFFF73C
:1033E8007BF99FED01AB2BE0000000000000F03FEF
:1033F800FE822B654715F73F000000000000E0BF84
:10340800000000000000E03F422EE63FF2E4D5BC99
:10341800E7E84B3EFFFF8FBC0000903C112E578120
:10342800A03F503F5843128C8F71BC3F4BE8A541D9
:10343800B752013F0BBDF3DAE8708C3F0000E03F64
:1034480053EC1A2BFFF748F982468B4651EC1B0BBD
:1034580053EC192BFEF77AFE53EC1A2BFFF73CF9C5
:1034680002460B4650465946FFF702F853EC182B14
:10347800FEF72CFF41EC180B84ED008BA9192046B0
:10348800FEF796FD040018BF012C03D1FFF746FE96
:10349800222101602046BDEC088BBDE8708C704786
:1034A80003B4DDE90023C3F30A5140F2FF729142ED
:1034B80006D001B10CE0190350EA113006D00BE038
:1034C800190350EA113014BF0220012002B07047DE
:1034D8004FF0FF3002B070476FF0010002B0704744
:1034E8002DE9F04F87B004000D00002081465FFAF7
:1034F80089F919F804002E280BD05FFA89F919F810
:10350800040003A95FFA89F909F8010019F1010912
:10351800EDE7002003A95FFA89F909F8010003A87B
:1035280000F0EEFB019000208246002081465FFA01
:1035380089F919EB0400807A002815D05FFA89F917
:1035480019EB0400807A2E280BD05FFA89F919EB61
:103558000400807A03A95FFA8AFA0AF801001AF1CE
:10356800010A19F10109E2E7002003A95FFA8AFAC2
:103578000AF8010003A800F0C3FB0600207D4E28CE
:1035880003D100208DF8010002E001208DF8010030
:1035980000208246002081465FFA89F919EB040071
:1035A800407D002815D05FFA89F919EB0400407DA9
:1035B8002E280BD05FFA89F919EB0400407D03A986
:1035C8005FFA8AFA0AF801001AF1010A19F10109E9
:1035D800E2E7002003A95FFA8AFA0AF8010003A8C3
:1035E80000F08EFB070094F82000452803D1002046
:1035F8008DF8000002E001208DF8000094F8210009
:103608003038069014F1220000F07AFB0290002076
:1036180081465FFA89F919EB040090F82500002823
:1036280001D0012000E000205FFA89F919EB0401BC
:1036380091F825102E2901D0012100E00021C0B207
:1036480008420DD05FFA89F919EB040090F82500BB
:1036580003A95FFA89F909F8010019F10109D8E706
:10366800002003A95FFA89F909F8010003A800F00E
:1036780047FB834614F12D0000F042FB8046A08EE4
:10368800ADF802000198800A2870019880086870D7
:103698000198710D11F03F0151EA8010A870700B6C
:1036A800E870700928719DF80100800050EAC60092
:1036B800B90E11F0030108436871B80CA871B80A73
:1036C800E871B80828729DF80000400150EA871098
:1036D800069911F0030150EAC1000299C1F34201B1
:1036E8000843687202985FEA9B2111F07F0151EA52
:1036F800C010A8725FEA9B00E8725FEA184010F0F9
:103708003F0050EA8B1028735FEA1820687385F829
:103718000E800020E873BDF80200287407B0BDE8E9
:10372800F08F2DE9F84F91F800C091F801B05FEAE9
:103738008B0B5BEA8C2C91F802B05FFA8BFB5FEA8B
:103748009B1B5FFA8BFB5BEA0C0C624691F802C08C
:103758001CF03F0C91F803B05FEA4B3B5BEA4C5C12
:1037680091F804B05CEA4B1C91F805B05FFA8BFB4A
:103778005FEADB0B5FFA8BFB5BEA0C0C634691F8A4
:1037880005C0CCF3800C5FFA8CFC1CF0010CE646FB
:1037980091F805C01CF0030C91F806B05FEA8B4B5A
:1037A8005BEA8C6C91F807B05CEA8B2C91F808B056
:1037B8005CEA8B0C91F809B05FFA8BFB5FEA9B1B04
:1037C8005FFA8BFB5BEA0C0C64465FF0000CE0468A
:1037D80091F809C0CCF3C10B5FFA8BFBCDF800B0B0
:1037E80091F809C01CF0070C91F80AB05FFA8BFB3E
:1037F8005FEADB1B5FFA8BFB5BEA4C0C654691F8D2
:103808000AC01CF07F0C91F80BB05FEA8B0B5BEAE7
:103818008C2C91F80CB05FFA8BFB5FEA9B1B5FFA6C
:103828008BFB5BEA0C0C664691F80CC01CF03F0C55
:1038380091F80DB05FEA0B2B5BEA0C4C91F80EB0D7
:103848005BEA0C0C674691F80FC091F810B05BEA80
:103858000C2CE1465FF0000C80F809C05FF0300CDA
:1038680080F808C05FF0300C80F807C05FF02E0CBD
:1038780080F806C05FF0060CE2465FFA8AFABAF1F1
:10388800000F14D05FF00A0CB2FBFCFB0CFB1B2CE6
:103898001CF1300C5FFA8AFA1AEB000B0BF801CC1A
:1038A8005FF00A0CB2FBFCF2BAF1010AE5E75FF03F
:1038B800000C80F813C05FF0090CE2465FFA8AFA40
:1038C800BAF1000F22D05FFA8AFABAF1050F08D1CF
:1038D8005FF02E0C5FFA8AFA1AEB000B8BF809C01E
:1038E80011E05FF00A0CB3FBFCFB0CFB1B3C1CF16A
:1038F800300C5FFA8AFA1AEB000B8BF809C05FF0FC
:103908000A0CB3FBFCF3BAF1010AD7E75FFA8EFEA3
:10391800BEF1000F04D05FF0530C80F814C003E030
:103928005FF04E0C80F814C05FF0000C80F81FC0E8
:103938005FF00A0CE2465FFA8AFABAF1000F22D069
:103948005FFA8AFABAF1060F08D15FF02E0C5FFA17
:103958008AFA1AEB000B8BF814C011E05FF00A0C1E
:10396800B4FBFCFB0CFB1B4C1CF1300C5FFA8AFA15
:103978001AEB000B8BF814C05FF00A0CB4FBFCF4D4
:10398800BAF1010AD7E75FFA88F8B8F1000F04D056
:103998005FF0570C80F820C003E05FF0450C80F81A
:1039A80020C0DDF800C01CF1300C80F821C00A2DC1
:1039B80016D35FF00A0CB5FBFCFC1CF1300C80F848
:1039C80022C05FF00A0CB5FBFCFB0CFB1B5C1CF176
:1039D800300C80F823C05FF0000C80F824C007E0AA
:1039E80015F1300C80F822C05FF0000C80F823C07D
:1039F8005FF0000C80F82CC05FF0300C80F82BC012
:103A08005FF02E0C80F82AC05FF0050CE2465FFAE2
:103A18008AFABAF1000F14D05FF00A0CB6FBFCFB6F
:103A28000CFB1B6C1CF1300C5FFA8AFA1AEB000BCA
:103A38008BF824C05FF00A0CB6FBFCF6BAF1010A59
:103A4800E5E75FF0000C80F833C05FF0060CE24653
:103A58005FFA8AFABAF1000F14D05FF00A0CB7FBCC
:103A6800FCFB0CFB1B7C1CF1300C5FFA8AFA1AEB8E
:103A7800000B8BF82CC05FF00A0CB7FBFCF7BAF10F
:103A8800010AE5E7A0F83490BDE8F18F2DE9F04789
:103A98002DED048B8EB004000D0004A80B2100F05E
:103AA80033F901A80B2100F02FF914F10A000600E0
:103AB80030788DF80000761C30788DF80100761C7F
:103AC80000208DF80200684600F01AF9824630009E
:103AD80000F01DF9B0EE408AF0EE608A51EC180B48
:103AE8000022824BFEF7C4FC804689465046FEF70A
:103AF80015FB42464B46FEF7EFFD41EC180B06213D
:103B08000AA88046894651EC180B00F009F900EE26
:103B1800100A4946404600F0A5F8207D532807D1F1
:103B280070A104A800F044F90AA900F041F903E0E3
:103B38000AA904A800F03CF914F115000600307831
:103B48008DF80000761C30788DF80100761C3078EE
:103B58008DF80200761C00208DF80300684600F0FE
:103B6800CFF80700300000F0D2F8B0EE409AF0EE3F
:103B7800609A51EC190B00225C4BFEF779FC8046E9
:103B880089463800FEF7CAFA42464B46FEF7A4FDBE
:103B980041EC190B062107A88046894651EC190B00
:103BA80000F0BEF800EE100A4946404600F05AF808
:103BB80094F82000572807D14AA101A800F0F8F886
:103BC80007A900F0F5F803E007A901A800F0F0F84C
:103BD8004749280000F0FAF804A9280000F0E8F89E
:103BE80041A1280000F0E4F801A9280000F0E0F85D
:103BF8004049280000F0DCF80EB0BDEC048BBDE8AD
:103C0800F08730B400224B1E9A4207DA155C2C006C
:103C18001D5C15541C54521C5B1EF5E730BC7047E4
:103C2800F8B507000C0015000026002F0BD00A205D
:103C380097FBF0F100FB117030303055761C0A20EC
:103C480097FBF0F7F1E7AE4203DA30203055761CE7
:103C5800F9E731002000FFF7D4FF0020305530008D
:103C6800F2BD00002DE970432DED048BB0EE408AC3
:103C780004000D00FDEEC88AB8EEE80A38EE409A56
:103C88000022210018EE900AFFF7CAFF0600002D57
:103C980023D02E20305519EE100A00F0B9F88046CE
:103CA80089462800FEF73AFA41EC110B9FED120BFA
:103CB800FEF7C7FF51EC100B42464B46FEF706FBDA
:103CC80000F02EF809EE100A2A003019411CBDEE4A
:103CD800C90A10EE100AFFF7A3FFBDEC048BBDE87C
:103CE800708300002D0000002C00000000004E40F2
:103CF800486B0000406C00000000000000002440F9
:103D08000A22002100F050B9002200F07BB980B5EA
:103D18000022002100F058FA41EC100B01BD000010
:103D28004FEAF17CBCF1E04C2CBFBCF5001F11E060
:103D38005FEA4C0C34BFBCF17F5F2EE05FEA9C0C5D
:103D48004FEA0C1C4FEA3C0CC10071F100414CEBEE
:103D580050707047C90241EA5051C00218BF41F083
:103D6800010141F000414FEA6C50C0F109002128DF
:103D780010D240EACC7CCCF1200C11FA0CF070F196
:103D88000040CCF1200C21FA0CF00CF0004C40EB78
:103D98000C0070474FEACC707047490011F5001FBE
:103DA80004D84FEACC10FF30C0057047C8177047D9
:103DB800024600E0521C1378002BFBD111F8013B9E
:103DC800137012F8013B002BF8D170475FEA000C22
:103DD800830706D011F8013B00F8013BB3B1830714
:103DE800F8D10A68B2F1013323EA020313F0803FE5
:103DF80002BF40F8042B51F8042FF3E711F8013BF8
:103E080000F8013B13B111F8013BF9E76046704730
:103E18005FF0FF0C1CEAD05114BF614506E0C110E9
:103E2800400721F0E04101F16051704779B900F095
:103E3800004100020AD0B0FA80FC00FA0CF001F14F
:103E48006051A1EB0C5101EBD021400570474102B4
:103E58000CBF40F4E0016FF0000100207047000043
:103E68002DE9F04F85B004461E000D4690461CBF54
:103E780000203060A14601E009F1010999F800002D
:103E8800A0F109010529F7D32028F5D02D2816BF60
:103E98002B2819F8017B2B27B8F1000F57D4B8F15C
:103EA800010F54D0B8F1250F51DAB8F1010F0DDB2D
:103EB800B8F1100F04BF99F80000302802BF99F834
:103EC800010040F02000782814D10EE099F8000095
:103ED800302818BF4FF00A080CD199F8010040F0BB
:103EE8002000782804D14FF0100809F1020901E0F8
:103EF8004FF00808CDF8109001E009F1010999F890
:103F080000003028F9D00FF2A40B4FF0000ACDF8CA
:103F18000C908DF808B00AE09DF80810CDF804A0C0
:103F2800401AC0B2009008FB0A0A09F1010999F881
:103F38000010A1F141001A2838BF203142465846E6
:103F4800FDF706FF0028E7D10498484503D105B1DD
:103F58002C60002025E00FF27C01039818F801106E
:103F6800A9EB0000401A14D4012808DA0098BAEB2B
:103F7800000004D30199B0FBF8F0884209D0FFF79C
:103F8800CDF8222101600EB1012030604FF0FF3AD8
:103F980003E02D2F08BFCAF1000A0DB1C5F8009043
:103FA800504605B0BDE8F08F002359E73031323371
:103FB8003435363738396162636465666768696ABB
:103FC8006B6C6D6E6F707172737475767778797AC1
:103FD8000000000000002115110E0D0C0B0B0A0A41
:103FE8000909090909080808080808080707070748
:103FF80007070707070707070700000062F30F22F4
:1040080062F31F42401810F0030308D0C91A1FD3E7
:10401800DB0748BF00F8012D28BF20F8022D130048
:1040280030B414461546103928BF20E93C00FAD8A8
:10403800490728BF20E90C0048BF40F8042D890033
:1040480028BF20F8022D48BF00F8012D30BC70476A
:10405800C91818BF00F8012DCB0728BF00F8012D9B
:10406800704700002DE9F14D81B006462DED028B19
:1040780088B0884614461F460BA800F0A7F80546E6
:104088000FB10021396020F00800012835D1022045
:10409800009004AB0B994246304600F027F9060021
:1040A80003D10020CDE902001FE00598FEF736F89D
:1040B800CDE90201022E18DB0DF11808761E9FEDDE
:1040C8003D8BDDE9022351EC180BFEF7FFF8824621
:1040D80058F8040B8B46FEF721F852465B46FEF76C
:1040E800FBFACDE90201761EEBD104980219DDE94D
:1040F80002013B4600F016FA44E0022837D100904E
:1041080004AB0B994246304600F0DEFA060003D1B4
:104118000020CDE902001FE00598FDF7FFFFCDE97B
:104128000201022E18DB0DF11808761E9FED238B75
:10413800DDE9022351EC180BFEF7C8F8824658F85F
:10414800040B8B46FDF7EAFF52465B46FEF7C4FABE
:10415800CDE90201761EEBD1049902A8FDF728FFEC
:10416800DDE902013B46224600F0DCF90AE00328BB
:1041780002D10020134905E0042806D14FF0FF3092
:104188006FF00041CDE9020102E00020CDE9020014
:10419800280743BFDDE9020181F0004141EC100B23
:1041A8009DED020B08B051EC100BBDEC028BBDE885
:1041B800FC8D00000000000065CDCD41000000002E
:1041C8000000B0410000F07F00234BE770B40268A4
:1041D8001346002400E05B1C1D78A5F10906052E96
:1041E800F9D3202DF7D02D2D0CBF08242B2D00D16D
:1041F8005B1C1D7845F020066E2E26D15C7844F0B5
:104208002004612C02BF9C7844F020046E2C02D05C
:104218001346002246E0DB1C1C4604222578282D84
:1042280040D114F8015FA5F161061A2EF9D3A5F162
:1042380041061A2E24BF303D0A2DF2D325785F2D72
:10424800EFD0292D2ED1631C2CE0692E2DD15D785D
:1042580045F020056E2D02BF9D7845F02005662D9E
:1042680002D0134600221DE044F0030213F8034F66
:1042780044F02004692C02BF5C7844F020046E2CC2
:1042880010D19C7844F02004692C02BFDC7844F0FB
:104298002004742C06D11C1D257845F02005792DA5
:1042A80008BF631CF1B10B601CE0302D02BF5978C8
:1042B80041F02001782913D1991C0A782E2A08BFC9
:1042C800491C0978A1F16102062A21BFA1F1410226
:1042D800062A30390A2903D29B1C44F0020201E065
:1042E80044F001020360104670BC70472DE9F047A6
:1042F8008CB00D4614998046002001EBC1012E298F
:10430800A8BF2D2100261E605E6001E06D1C0126FD
:104318002F78302FFAD00027EC4604E01E68761C70
:104328001E606D1C012695F800E0AEF130040A2CE1
:1043380007D2B942F2DBAEF1300607F80C607F1CF9
:10434800EFE7BEF12E0F08BF6D1C47B904E01E68E9
:10435800761E1E606D1C01262C78302CF7D02C7828
:10436800A4F1300EBEF10A0F0CD2B94207DBA4F15A
:1043780030066C463E557F1C1E68761E1E606D1CFE
:104388000126ECE7B94218DA6F46CF5D052F06DB48
:104398006F46CF1917F8014C641C07F8014C0F46FB
:1043A8001968491C196008E06946791811F8011C58
:1043B80049B91968491C19607F1E012FF4DA17B929
:1043C8008DF800000127002E5DD04FF0090E97FBF5
:1043D800FEFEC7F1090C0EEBCE0EE6444FF0090CB9
:1043E8009EFBFCFC00210CEBCC04BEEB04040ED0BD
:1043F80001200CE053F8204011F80CC004EB8404B1
:104408000CEB440443F820400EF1010E491CB9425C
:104418000CDA09249EFBF4F404EBC404BEEB040498
:10442800EC46E7D111F80C40401CEBE7297841F045
:104438002001652927D1294615F8017FDFF858C0E2
:104448002B2F16BF2D2F15F8017B2B270024A646EE
:1044580009E0E64505DA0EEB8E0409EB4404A4F105
:10446800300E6D1C012495F80090A9F1300ABAF1BC
:104478000A0FEED32D2F08BFCEF1000E1F68774428
:104488001F6004B90D461AB106B1A846C2F80080EB
:104498000CB0BDE8F08700BF00E1F50510B450F896
:1044A800041B79B10268436812180830DC0744BF5E
:1044B800A9F10104E31852F8044B43F8044B091F0F
:1044C800F9D1ECE710BC704738B5054640F2FF71EA
:1044D8002DED028B6868C0F30A50884243EC182B14
:1044E80006D0012806DA2846FDF711FD012801DB70
:1044F800002406E06A6840F2FE3161F31E526A60E9
:10450800441AD5E9000153EC182BFDF7DFFEC5E985
:104518000001BDEC028B21B22846BDE83440FDF70E
:1045280047BD0000F8B52DED028B140003B482B02E
:104538001F4600F09080DDE9022300200021FEF7ED
:10454800DDFD00F08880002C9FED468B40D564424D
:104558000FF22C1508260CE0E00707D5D5E9000175
:1045680053EC182BFDF7B2FE41EC180B6408083524
:10457800761E002C18BF002EEED102A9684600F066
:10458800A3F9DDE9020153EC182BFDF771FFCDE922
:104598000201BDF9001002A8FDF70AFD05004DD57E
:1045A800002C4DD002A9684600F08EF9DDE9020121
:1045B8002E4A2F4BFDF78AFECDE90201BDF9001006
:1045C80002A8FDF7F5FC050038D5641EEAD137E0EE
:1045D800012C33DB0FF2A8050826E00707D5D5E93B
:1045E800000153EC182BFDF771FE41EC180B641019
:1045F8000835761E012C01DB002EEED153EC182B6A
:1046080002A8FFF761FF050018D5012C18DB02A9E5
:10461800684600F059F9DDE90201164A164BFDF724
:1046280055FECDE90201BDF9001002A8FDF7C0FC56
:10463800050003D5641E012CE9DA01E02DB20DB1A5
:10464800012D08D1FEF76AFD222101601FB13868EB
:1046580040F001003860DDE9020104B0BDEC028BD6
:10466800F4BD0000000000000000F03F436FAC64A0
:104678002806C80A3CBF737FDD4F1575000000008F
:104688000000000000002440000000000000594025
:10469800000000000088C3400000000084D7974154
:1046A8000080E03779C34143176E05B5B5B8934626
:1046B800F5F93FE9034F384D321D30F94877825AF2
:1046C8003CBF737FDD4F15752DE9F54F8BB0002585
:1046D8001698C0EBC0081C46B8F1240FA8BF4FF0CD
:1046E800230825600E466560002701E0761C012737
:1046F80030783028FAD00FF2A01AA946CDF800A0D9
:104708000DF1040B04E02068401C2060761C012792
:10471800317816225046FDF71BFB58B1C845F2DB2D
:10472800009A0FF28C11801A405C09F80B0009F10D
:104738000109EBE730782E2808BF761CB9F1000F85
:1047480008D104E02068401E2060761C01273078DC
:104758003028F7D0317816225046FDF7F9FA88B19B
:10476800C8450CDB0FF24811A0EB0A00405C01A918
:1047780009F8010009F101092068401E2060761C33
:104788000127E7E7C8451ADA01A818F80000082841
:1047980006DB01A8404410F8011C491C00F8011C64
:1047A800C1462068401C206009E001A8484410F870
:1047B800010C70B92068401C2060A9F10109B9F109
:1047C800010FF2DAB9F1000F04BF8DF804504FF071
:1047D800010920688000002F206052D0072299FB31
:1047E800F2F2C9F10701C2EBC2025118072291FB8C
:1047F800F2F20020C2EBC2028A1A05D0012503E0BA
:1048080044F82520491C401C48450EDA072391FB33
:10481800F3F310F80B20C3EBC303CB1A0EBF6D1CC8
:1048280054F8253002EB0312EAE7307840F0200014
:10483800702826D1304616F8011FDFF858C02B29FA
:1048480016BF2D2916F8011B2B210022002309E091
:10485800634505DA03EB83020EEB4202A2F1300353
:10486800761C012296F800E0AEF13008B8F10A0F84
:10487800EED32D2908BF5B4221685918216002B97F
:1048880006460C9810B107B90B9E066028460DB075
:10489800BDE8F08F00E1F505303132333435363775
:1048A80038396162636465664142434445460000A5
:1048B800000102030405060708090A0B0C0D0E0F78
:1048C8000A0B0C0D0E0F000038B50C460546606843
:1048D800C0F30A5040F2FF71884209D100202880B5
:1048E8006068000305BF206800280220012032BD4F
:1048F800012804DA2046FDF70AFB01280ADA626873
:1049080040F2FE3161F31E526260401A28804FF077
:10491800FF3032BD0020288032BD000030B583B0A2
:104928000400DFF860040078002801D0002055E07A
:1049380000F032FA0500002D01D028004EE0DFF823
:104948004814002000F03FFA0500002D01D028008F
:1049580044E0DFF8380400F08AF90500002D01D0A2
:1049680028003BE0DFF824040068002801D10B2070
:1049780034E0DFF814044068DFF814140880DFF826
:104988000804C068DFF8081448800020DFF8001425
:1049980088800020DFF8F813C880DFF8F403008867
:1049A800DFF8EC130881DFF8E8034088DFF8E0134C
:1049B80048810120DFF8CC130870DFF8D4030088A1
:1049C800DFF8CC1349884843019000200090002369
:1049D80000220021002000F041F800203EBD010027
:1049E800DFF8A0030078002801D1012003E0DFF8F8
:1049F800A00308600020704730B40400DFF8840387
:104A08000078002801D1012026E0DFF8840300881F
:104A180092B212FA84F5A84207DBDFF874034088E3
:104A28009BB213FA81F5A84201DA042014E092B28D
:104A3800002A02D09BB2002B01D105200CE0DFF840
:104A480050038480DFF84803C180DFF84403028103
:104A5800DFF83C034381002030BC70472DE9FC4F50
:104A680087B080460E00139FDFF8180300780028EF
:104A780001D10120F8E0DFF814030068002801D113
:104A88000120F1E0DFF80003407C002801D00A2073
:104A9800EAE00024DFF8F0028068C0080490DFF83C
:104AA800E802007C012803D19DF82000019008E06D
:104AB8009DF82000002802D10120019001E000208B
:104AC80001900198002801D0FF2500E00025B0489A
:104AD800C0888619AD480068B6B2049901FB060083
:104AE8000590002F00F0BF80A94800891FFA88F8B8
:104AF800B0EB0800B84206D2A54800891FFA88F82A
:104B0800B0EB080A00E0BA46B7EB0A07A04880886D
:104B180010EB08080598049901FB04008346BAF1D4
:104B2800080F35D21AFA88FA0198002818D01FFA07
:104B380088F8D04580F07F801FFA88F85FEAE8009F
:104B480010F80B00012118F00702914008431FFAE2
:104B580088F85FEAE80101F80B0018F10108E6E7B8
:104B68001FFA88F8D04566D21FFA88F85FEAE8008D
:104B780010F80B00012118F00702914088431FFA32
:104B880088F85FEAE80101F80B0018F10108E7E787
:104B98001FFA88F818F0070003901FFA88F81BEB33
:104BA800E80B039800281BD09BF8000081460120E1
:104BB80003998840401E8DF800009DF8000010EA17
:104BC80009099DF8000035EA000050EA09098BF848
:104BD80000901BF1010B0398D0F10800BAEB000A12
:104BE8005FEADA000290029800280DD00298069039
:104BF800EDB22A0006995846FFF700FA0298BAEB78
:104C0800C00A029810EB0B0BBAF1000F13D09BF8F7
:104C180000008146012010FA0AF0401E8DF80000BD
:104C28009DF8000039EA00099DF80000284050EA84
:104C380009098BF80090574814FA86F14911554A2A
:104C480014FA86F35B1152F82320012314EB060CA7
:104C58001CF01F0C13FA0CF31A4340F82120002013
:104C68008046641C3DE7002009B0BDE8F08FF8B528
:104C78000400464B4448C268434841684248424D94
:104C8800AD69A84741480068002801D10B200BE016
:104C98003E48006820601025FF263E4F320029005C
:104CA8003800FFF7ABF90020F2BD2DE9F04F85B0D1
:104CB80035488068C0080390364807685FF00108E7
:104CC800002005000020040060192F49C9688842A7
:104CD8002FD2F80701D5641C1EE0002C1BD02B48EE
:104CE8000068039901FB050002900194009526488D
:104CF8004368002202992448DFF88CC0DCF820C001
:104D0800E0470600002E01D0300037E0601C45194E
:104D18000020040000E06D1C601910F01F0F01D086
:104D28007F08D1E71B4850F82800070018F1010850
:104D3800CAE7002C16D015480068039901FB050046
:104D480002900194009510484368002202990E4889
:104D5800DFF834C0DCF820C0E0470600002E01D0A0
:104D680030000BE05FF010095FF0000ADFF824B0B4
:104D7800524649465846FFF741F9002005B0BDE8BC
:104D8800F08F00002C0A002074090020FC09002084
:104D9800DC090020CC09002038B52D4D2D480078BD
:104DA80000280ED101202B4908702868002808D057
:104DB800286880470400002C01D0200002E02D1D47
:104DC800F3E7002032BD2DE9F04104000D00214831
:104DD8000078002802D12048060010E0012C0CDAE7
:104DE8002C271F482C2101FB04083A0041462800C3
:104DF800FDF752F80020060001E01A4806003000CE
:104E0800BDE8F081F8B5040012480078002802D106
:104E18001148050019E011480068012813DA2C260A
:104E28000F480E4909682C2202FB01070B4800684D
:104E3800401C0A490860320021003800FDF72CF8B0
:104E48000020050001E0084805002800F2BD000028
:104E5800000000202A0A002005001180F80900201F
:104E680048090020020011800100118072B6DFF8A5
:104E7800B003006810F1010F06D0DFF8A403006842
:104E8800401CDFF89C130860DFF894030068704743
:104E9800DFF88C03006800280FD0DFF8840300686F
:104EA800401EDFF87C231060DFF8740300680100FF
:104EB800002900D162B6080000E0002070470328EE
:104EC80001DA012100E00021C9B2DFF8581311EB23
:104ED800001040687047032801DA012200E0002230
:104EE800D2B2DFF8402312EB001251607047DFF8AE
:104EF800380300687047DFF8341308607047DFF83C
:104F0800301309688143DFF8282311607047DFF800
:104F1800201309680143DFF8182311607047DFF890
:104F2800140300687047F8B5FFF7A0FFFFF7F7FF15
:104F3800040060072DD50120DFF800130870FFF783
:104F4800D6FF06000420FFF7DAFFDFF8FC0200684E
:104F5800301A0500280000F029F800F0F7F83000B2
:104F680000F00FF9FFF7C3FF0600B7480068301AD2
:104F780005000120FFF7A3FFB3490968401A07009D
:104F8800AF480078002801D0AF42DBD30020AB49FE
:104F98000870E00707D50120FFF7ADFFA9480068B2
:104FA800401CA8490860FFF773FFF1BDF0B4002169
:104FB8000A00042A80F2C88000219F4B282404FBA1
:104FC800023359779C49282303FB0211097F0029E2
:104FD80000F0B8800021984B282404FB0233D3E961
:104FE8000045A94212D801D3A0420FD292492823E2
:104FF80003FB0211D1E900450021241A8D418E4995
:10500800282303FB0211C1E900459BE08A492823B4
:1050180003FB0211C97F002906D10021864B2824F1
:1050280004FB0233197780E08349282303FB02112C
:10503800D1E900458049282303FB0211D1E9026721
:105048000021361A8F41A4197D417B49282303FB8F
:105058000211C1E900457849282303FB02110969B7
:10506800012931DB7449282303FB02114969724B7A
:10507800282404FB02331B6959186F4B282404FBAE
:10508800023359616C49282303FB02114969F42949
:105098004BD36949282303FB0211D1E90045641C5D
:1050A80055F100056449282303FB0211C1E90045B5
:1050B8006149282303FB02114969F4395E4B28240E
:1050C80004FB0233596130E05B49282303FB0211DA
:1050D8004969594B282404FB02331B69C91A564BEA
:1050E800282404FB023359615349282303FB021186
:1050F8004969F42919D35049282303FB0211D1E93E
:105108000045641E75F100054B49282303FB021175
:10511800C1E900454849282303FB02114969F439CC
:10512800454B282404FB023359614349282303FBD8
:1051380002118969002905D001213F4B282404FB6D
:1051480002335977521C34E7F0BC704710B5002081
:105158000400042C14DA3848282101FB0400407F9D
:1051680000280BD03448282101FB0400016A2000E4
:10517800314A282303FB042292699047641CE8E71C
:1051880010BDF8B506005FF0FF345FF0FF35002072
:105198000700042F1BDA2848282101FB0700007F9D
:1051A800002812D02448282101FB0700D0E9002359
:1051B800AB420AD801D3A24207D21F48282101FBDB
:1051C8000700D0E9002314001D007F1CE1E7002040
:1051D8001B4908705FF0FF305FF0FF318D4201D14D
:1051E80084421AD07FF0640000218D4203D801D395
:1051F800844200D202E07FF0640400251248066071
:105208000420FFF778FEA1190120FFF764FE0120B2
:105218000B4908700420FFF77AFEF1BD000000007A
:105228000C0A0020402004400820044020200440AC
:105238002420044018200440280800202D0A0020BB
:105248002E0A0020200A00201C0A002000186C6C7E
:1052580010CE3808600C0000000000007C307C7C18
:10526800C6FE7CFE7C7C000070001C7C7C7C7E7C06
:105278007EFEFE7CC63C78C606C6C67C7E7C7E7CEE
:105288007EC6C6C6C6C6FE7C007C10000C000600A2
:1052980060003800060000060C0000000000000056
:1052A800000000000000003018188C00000000000A
:1052B80000186CFEFC6A2C1830186C18000000C02E
:1052C800C638C6C6C606C6C0C6C61818387C38C68C
:1052D800C6C6C6C6C60606C6C618306606EECEC61A
:1052E800C6C6C6C618C6C6C6C6C6C00C066038003E
:1052F8000C00060060000C00061830060C000000C8
:105308000000000018000000000000181830D60047
:1053180000000000001848FE162E2C181830381807
:1053280000000060C63060C0C6060660C6C6181811
:105338001C7C70C6F6C6C606C6060606C6183036F3
:1053480006FEDEC6C6C6C60618C6C6C66CC6600C4D
:105358000C606C00043C3E3C7C3C3C3C3E000066DF
:105368000C6E3E3C3E3C363C186666C666667E1849
:1053780018306200000000000018006C7C10DC008F
:105388001830FE7E1C7E0030C6303070FE7E7E30C7
:105398007CFC00000E00E070F6FE7E06C61E1EF6BF
:1053A800FE18301E06D6F6C67EC67E7C18C6C6D641
:1053B80038FC300C1860C6000060660666660C662D
:1053C800661830360CD6666666666E067C6666C6F5
:1053D8003C66300C0060000000000000000000FE89
:1053E800D0E866001830387E1C7E1C18C63018C0FD
:1053F800C0C0C618C6C018181C7C703076C6C60651
:10540800C60606C6C618303606C6E6C606B6C6C0FE
:1054180018C6C6FE6CC0180C30600000007C66061A
:10542800667E0C7C6618301E0CD666663E56063CB8
:10543800186666D6187C181818300000000000009E
:10544800001800FE7EAC660030186C1818001C0CA2
:10545800C6300CC6C0C6C60CC6C61818387C38007C
:1054680006C6C6C6C60606C6C618366606C6C6C672
:105478000666C6C618C66CEEC6C00C0C606000FE98
:105488000066660666060C60661836360CC66666E2
:105498000626066018663CD63C600C1818300000DA
:1054A800000000000018006C10E6DC00600C00181A
:1054B8000C001C067C78FE7CC07C7C067C7C000C86
:1054C80070001C307CC67E7C7EFE06FCC63C1CC67A
:1054D800FEC6C67C06DCC67C187C38C6C67EFE7C4A
:1054E800C07C00FE007C3E3C7C3C0C3E66701C662A
:1054F80038C6663C065C063E707C18FC663E7E300C
:105508001818000000000000000000000000000063
:105518000000000000000000000000000000000083
:105528000000000000000000000000000000000073
:105538000000000000000000000000000000000063
:105548000000000000000000000000000000000053
:105558000000000000000000000000000000000043
:10556800000000000000000000000000012110F011
:105578001F029140994A40B2430942F823107047EC
:1055880072B69748006810F1010F04D0944800687B
:10559800401C93490860924800687047904800682A
:1055A80000280CD08E480068401E8D4A10608C4838
:1055B80000680100002900D162B6080000E0002060
:1055C80070478848006870472DE9F04F85B000257E
:1055D800002600275FF000085FF0000901A8824953
:1055E800B1E80C10A0E80C100C390C385FF0000A78
:1055F8005FF0000B7D480068C00705D401217C4896
:10560800FAF7A9FE012006007A48FBF7FEF8040025
:10561800E4B2032C01D00120804677480068400698
:1056280001D40120814603217248FBF77DF97348B4
:10563800FAF782FE009072480068C00705D401217D
:105648006E48FAF788FE01200700FFF799FF6D48BA
:105658000068C00714D56B48006882466A4800682D
:10566800834600206749086000206749086040F2C7
:10567800FF70664908601D20FFF778FF01200500CC
:1056880000208DF8060000208DF8070008208DF80E
:10569800080001A800F0CEF800F038F8FFF77EFF08
:1056A800EDB2002D0AD000995448FAF74CFE55483F
:1056B800C0F800A05448C0F800B002E0002000F094
:1056C800B0F8FFB2002F03D000214C48FAF743FE90
:1056D8005FFA88F8B8F1000F04D02100C9B2454834
:1056E800FBF722F95FFA89F9B9F1000F04D000221B
:1056F80000210120FBF7F6F9F6B2002E03D00021B5
:105708003B48FAF728FE05B0BDE8F08F70B50826CB
:105718004FF480503E4908603D48006840003C49CD
:105728000860002812D000F03EF8050000F03BF8B1
:105738008542FBD000F037F805003548006800F0D6
:1057480037F800F030F8451B002DE5D030480068E8
:1057580040082F4908602E48006804003000461EA3
:1057680000281FD06408002C1CD02948006820435A
:105778002749086000F017F8050000F014F8854282
:10578800FBD000F010F805002148006800F010F880
:1057980000F009F8A842E1D01D480068A0431C4960
:1057A8000860DBE770BD80B5FFF70BFF02BD0000A6
:1057B8000138FDD8704700000100154B00290CD0B6
:1057C800013988221202003251431A68C80AD20AE3
:1057D8005043800901D00138FDD8704780E200E0CD
:1057E8000C0A002008200440046C0000B0400E4061
:1057F8000005080005001E0090400E4080091000BA
:10580800F0400E40002004402420044020200440A2
:10581800100000208B0013EB401313F184431A602F
:10582800704710B50400E4B2220000210F48FFF7CA
:10583800F1FF10BD0178427851EA8201827851EA7D
:105848000211C27851EA4211027951EA02214279E1
:1058580051EA0231827951EAC231C27951EA0241F0
:10586800027A51EA4241014A11607047002004401F
:105878008B0013EB401313F184431A60704738B55B
:1058880004000D00E4B2002C01D13F201CE0E4B27A
:10589800012C02D14FF4784016E0E4B2022C02D178
:1058A8004FF47C6010E0E4B2032C02D14FF47C404A
:1058B8000AE0E4B2042C01D1002005E0E4B2052C92
:1058C80001D1FF2000E00020284110F00100002253
:1058D80029007548E4B2302303FB04000C30FFF7BD
:1058E800C7FF31BD38B504000D00E4B2002C01D16A
:1058F8003F201CE0E4B2012C02D14FF4784016E0BE
:10590800E4B2022C02D14FF47C6010E0E4B2032C24
:1059180002D14FF47C400AE0E4B2042C01D100200B
:1059280005E0E4B2052C01D1FF2000E00020284169
:1059380010F00100012229005B48E4B2302303FB88
:1059480004000C30FFF794FF31BD10B4C0B200283A
:1059580001D13F221CE0C0B2012802D14FF47842A5
:1059680016E0C0B2022802D14FF47C6210E0C0B247
:10597800032802D14FF47C420AE0C0B2042801D1C6
:10598800002205E0C0B2052801D1FF2200E0002274
:105998000A4112F0010201228A40434BC0B230246E
:1059A80004FB00339A6110BC704710B586B0002420
:1059B80068463E4991EC060B80EC060B01213C48F9
:1059C800FAF7C9FC3B48029069463B4800F0EEF8FC
:1059D8000A203A4908603A48006830F01F2050F021
:1059E8000B2037490860200006B010BD70B50400D0
:1059F8000D000026002D12D0012D02D02000C00776
:105A080006D521782C4800F061F96D1E641CF1E779
:105A18002188294800F060F9AD1EA41CEAE729484E
:105A280000688006FBD5300070BD10B50024FFF774
:105A3800CBFD200010BD38B5040000252000FFF77D
:105A4800BBFE280032BD70B504000D001600320000
:105A58002900200000F09CF9002801D01A4800E035
:105A6800002070BD10B5002401211848FAF773FC16
:105A7800200010BD2DE9F84304000D0016001F009A
:105A88005FF00008F6B2002E0BD1042081463B00DF
:105A98004A46D2B229002000C0B200F0ECF94046D4
:105AA80000E00B48BDE8F28300A00040BC6B00009A
:105AB80000320400E067350000040140740401402E
:105AC80078040140100401400200138000250800FA
