S00B0000546573742E73333749
S1130000280E0020C9330000F9330000FD3300003E
S11300100134000005340000093400000000000031
S11300200000000000000000000000000D3400008B
S113003011340000000000001534000019340000E1
S11300401D340000B531000021340000BD31000032
S1130050E9310000C7310000C5310000E131000082
S1130060253400000D3100003D3200004531000010
S1130070293400002D3400003134000035340000F0
S113008039340000293100003D34000041340000BF
S113009045340000493400004D3400005134000060
S11300A055340000593400005D340000D1310000A3
S11300B0D9310000431600006134000065340000AB
S10B00C09330000069340000D4
S11300C88B0013EB401313F184431A60704702004A
S11300D8880010EB421010F184400068704710F15A
S11300E8C0621160704710F180621160704770B58A
S11300F804000D00160029002000FFF7F4FF31006A
S11301082000FFF7ECFF70BD00680840704701212C
S113011811FA00F0704738B50400B4F5004F01D265
S1130128012000E00020C0B2601CB0FA80F0D0F1D9
S11301381F0005002800FFF7EAFF401E844201D192
S1130148012000E00020C0B2280032BD70B50400D0
S11301580D00A54201D3002600E00126320010213B
S1130168DFF8B407FFF7ACFF32001821DFF82409E1
S1130178FFF7A6FF70BD10B51021DFF89C07FFF745
S1130188A6FF04001821DFF80C09FFF7A0FF0100FF
S11301988C4201D1012000E00020C0B2200010BD33
S11301A8DFF8001909680800704738B5DFF8F8085F
S11301B800F02BFB0500EDB22800072805D008281D
S11301C807D100F06BFE040005E0FFF7E9FF040027
S11301D801E000200400200032BD10B4DFF8CC3860
S11301E81B68002B01D0012200E0002241F6713384
S11301F8DFF8B8482360DFF824371B6813F040732E
S11302081900DFF81C37984207D2DFF818379842EC
S113021803D35FF08073190001E000231900DFF8AD
S1130228FC361B6833F040730B43DFF8F046236059
S1130238D2B2002A03D00023DFF87048236010BC30
S1130248704780B500F028FEFFF7C7FF01BD010025
S11302580F22CB1C934201D2C81C00E010000007F7
S1130268704770B5040000262000DFF82C18884277
S113027807D0DFF82818884203D0DFF834188842FA
S113028800D1FFE7200000F0C0FA05002000DFF8E5
S11302980818884208D0DFF8041888420BD0DFF821
S11302A8101888420ED014E0DFF80808006810F02F
S11302B8070005000DE0DFF80008006810F00700EB
S11302C8050006E0DFF8F407006810F007000500F1
S11302D8FFE7002D21D0022D08D003D3042D09D027
S11302E80CD31CE000F003FE060018E000F005FE45
S11302F8060014E000F0FEFD060010E0DFF89407A5
S11303080068C00104D500F0B7FD8008060003E0CA
S113031800F0B2FD4008060001E0002006003000AD
S113032870BDDFF87C170968C90704D4DFF8901793
S113033809680142FAD1704710B50400200000F0A2
S1130348F0F8401C10BD38B504000D00691E2000EB
S113035800F052F931BD2DE9F04104000D005FF0C1
S11303680008C4F30320C0B201280CD0022812D01C
S113037805280CD0062812D0072816D009281AD028
S11303880A281FD022E0DFF8900506001FE0DFF8F6
S1130398380706001BE0DFF83407060017E0DFF82B
S11303A8300706000120804611E0DFF82807060020
S11303B8102080460BE0DFF8200706005FF4803049
S11303C8804604E0DFF8C808060000E00EE0C4F345
S11303D804300700B8F1000F02D04046FFF7A1FF30
S11303E8EDB22A0039003000FFF76AFEBDE8F0815B
S11303F838B5040014F47810002824D0B0F5003F70
S113040835D0B0F5802F22D0B0F5002F2BD0B0F521
S1130418202F38D0B0F5402F77D0B0F5602F78D0A2
S1130428B0F5801F41D0B0F5901F44D0B0F5A01F9F
S113043856D0B0F5C01F32D0B0F5D01F4AD0B0F5B1
S1130448F01F5CD069E000F029FD050067E000F0CA
S113045825FD0500DFF884060068C0F30820401C69
S1130468B5FBF0F55BE000F019FD050057E000F07E
S113047815FD0500DFF868060068C0F30820401C75
S1130488B5FBF0F54BE000F009FD0500DFF8AC071B
S11304980068C0F30420401CB5FBF0F53FE0DFF82A
S11304A8F805FFF7DEFE050039E0DFF80406FFF77C
S11304B8D8FE050033E0DFF8E005FFF7D2FE0500BB
S11304C8DFF87C07006810F00F00FFF720FEB5FB8B
S11304D8F0F524E0DFF8C405FFF7C3FE05001EE0CD
S11304E8DFF8B805FFF7BDFE0500DFF8A8070068C8
S11304F810F00300FFF70BFEB5FBF0F50FE0DFF893
S1130508B005FFF7AEFE050009E0FFF74EFE050053
S113051805E0FFF745FE050001E00020050028007E
S113052832BD70B50400C4F303100500012D0CD0CE
S11305385ED3032D17D00FD3052D22D01AD3072D40
S113054839D025D3082D49D052E0DFF84805006892
S1130558C0F3042006004DE0DFF8E0060068C0F3AD
S11305680420060046E0DFF82C050068C0F30060AC
S113057806003FE0DFF864050068C0F308200600C1
S113058838E0DFF85C050068C0F30820060031E0B5
S1130598DFF8040784420BD1DFF8A406006810F0E2
S11305A80F0006003000FFF7B2FD401E060001E010
S11305B8002006001EE0DFF8E40684420BD1DFF8D1
S11305C8D406006810F0030006003000FFF79FFD12
S11305D8401E060001E0002006000BE0DFF84C088E
S11305E8844202D10020060001E00020060001E058
S11305F800200600300070BDF8B504000D00C4F3F7
S113060803100700012F10D0C0F0FE80032F44D040
S113061832D3052F64D051D3072F00F0C080C0F027
S11306288780082F00F0D780EEE0202D01D201202A
S113063800E00020C0B2FFF704FEDFF88814DFF8FA
S11306483C07FFF783FDDFF84C04006830F4F850EA
S113065850EA0520DFF83C14086000F00DFC0600A1
S11306683000FFF7BAFDDFF88407FFF7C1FEDFF8B3
S11306785414FFF76BFDC7E0202D01D2012000E0E0
S11306880020C0B2DFF8B405006830F4F85050EA2E
S11306980520DFF8A8150860B6E0022D01D2012074
S11306A800E00020C0B2DFF8EC03006830F080708E
S11306B850EA0560DFF8DC130860A5E0B5F5007FB3
S11306C801D2012000E00020C0B2DFF81004006865
S11306D86FF3102050EA0520DFF80014086093E057
S11306E8B5F5007F01D2012000E00020C0B2FFF779
S11306F8A8FDDFF8D013DFF88406FFF727FDDFF83D
S1130708E00300686FF3102050EA0520DFF8D013E7
S1130718086000F0B1FB06003000FFF75EFDDFF86B
S1130728CC06FFF765FEDFF89C13FFF70FFD6BE0BF
S11307382000DFF8F816884204D0DFF85C158842F8
S113074814D02BE0002D01D1012000E00020C0B21C
S11307585FF48020FFF7E5FDDFF8D40600680009A0
S113076800012843DFF8C816086017E0B5F5004F04
S113077801D8012000E00020C0B22800FFF7CBFC1C
S113078805000420FFF7CDFDDFF8B4040068000974
S113079800012843DFF8A8140860FFE734E0DFF815
S11307A8FC04844216D1092D01D2012000E0002066
S11307B8C0B22800FFF7AFFC05004020FFF7B1FDE9
S11307C8DFF8D0040068800880002843DFF8C414E8
S11307D80860FFE718E0DFF85406844213D1002DBF
S11307E801D1012000E00020C0B25FF48020FFF7AF
S11307F898FDDFF83C060068000900012843DFF88B
S113080830160860FFE7FFE7F1BD0100012011F091
S11308180F031A001300012B08D0022B1ED0032B40
S113082833D0052B4DD0062B62D070E0DFF80436A8
S11308381B6813F00703022B0AD00CD3042B01D036
S113084803D308E00223180007E00323180004E098
S11308580423180001E0052318005AE0954B1B688F
S113086813F00703012B04D0022B05D0042B06D068
S113087808E00323180007E00223180004E0092312
S1130888180001E00123180043E08B4B1B6813F0A8
S11308980703012B06D011D3032B0CD005D3042B4B
S11308A806D00BE0032318000AE00223180007E02F
S11308B80923180004E00623180001E001231800A6
S11308C827E07E4B1B6813F00703012B04D0022B8F
S11308D805D0042B06D008E00323180007E0022300
S11308E8180004E00923180001E00123180010E0AF
S11308F8DFF844351B6813F00103002B04D0012BE7
S113090804D10823180001E00723180001E000239C
S11309181800C0B27047000000400E4004000E40AA
S1130928015A620281BA8C012DE9F84F04000D00C6
S1130938032603275FF0000B14F00F00824650468D
S1130948012806D002284CD0032864D0052855D0A5
S11309589CE0EDB22800022808D003280BD0042814
S11309680ED0052816D009281ED01EE00420060043
S1130978002007001AE0032006000120070015E004
S113098802200600022007004E49DFF8F003FFF7B3
S1130998DDFB0BE001200600032007004949DFF8CE
S11309A8DC03FFF7D3FB01E072E071E001220121CF
S11309B83800C0B200F096F8FFF743FCDFF87C0477
S11309C80660DFF82804FFF713FD3E49FFF7BEFB76
S11309D800F0A8FA00F050FA80464046FFF7FDFB05
S11309E854E0BBF1000F02D1DFF8C8B0FFE7EDB265
S11309F8062D01D0012000E00020C0B2BBF1000F99
S1130A0802D1DFF8B8B0FFE7EDB2062D01D001201E
S1130A1800E00020C0B2BBF1000F02D1DFF898B0AB
S1130A28FFE7EDB22800012808D0022809D00328DE
S1130A380FD0062815D0092821D023E000208146AC
S1130A4821E001220121002000F04CF80220814617
S1130A5819E001220121012000F044F80120814617
S1130A6811E000F009FA1749FFF770FB0122002191
S1130A78DFF85400FFF724FB0320814603E0042039
S1130A88814600E004E0CBF80090FFE7FFF773FB32
S1130A98BDE8F18F00410E400200180003001A005F
S1130AA844410E400C00002006000C0040000E409B
S1130AB805001E0080400E4084400E4088400E40D1
S1130AC840410E400048E801B0400E40C0400E408E
S1130AD8E0400E40E8400E40F0400E400C410E400D
S1130AE808410E402DE9F84F04000D001600E4B249
S1130AF8002C29D0022C0CD01DD3042C12D02ED2B9
S1130B0801208146022082460120070000208046F9
S1130B1826E004208146082082460320070002209C
S1130B2880461DE0102081462020824605200700CB
S1130B380420804614E04020814680208246072015
S1130B480700062080460BE04FF4807081464FF47E
S1130B5800708246092007000820804600E06BE008
S1130B68EDB2002D5DD05FF0000BE4B2022C16D17B
S1130B78DFF8D402006810F0300F10D1012083464A
S1130B88DFF8C4020068C00709D5DFF8BC020068B2
S1130B9830F0300050F01000DFF8AC120860DFF8D5
S1130BA8B002C0F800904146DFF8A802FFF78FFAB8
S1130BB80028F8D0F6B2002E3CD03900DFF89402B1
S1130BC8FFF785FA0028F8D0E4B2022C32D15FFA94
S1130BD88BFBBBF1000F2DD09B480068C00705D5DF
S1130BE801222021022000F003F903E00021022061
S1130BF800F0C6F8022000F025F800900122002138
S1130C080220FFF76FFF0099022000F049F890488E
S1130C18C0F8009039008F48FFF759FA002809D125
S1130C28F8E78B48C0F800A041468A48FFF74FFA16
S1130C380028F9D100F076F9BDE8F18F14410E408F
S1130C4820410E400100C9B2012906D01DD3032951
S1130C5809D014D304290CD017E07F4A1268D205AE
S1130C68D20D100013E0774A126812F07F021000C8
S1130C780DE07A4A126812F07F02100007E0784A01
S1130C8812685205520D100001E00022100070474E
S1130C9850410E4028410E406006120070071400AF
S1130CA870B504000E00E4B2012C06D064D3032C02
S1130CB81AD045D3042C2DD05EE0B6F5007F01D2BE
S1130CC8012000E00020C0B2F605F60D1A215C48A8
S1130CD8FFF7FDF90028F9D15F480068400A40028F
S1130CE830435D49086047E0802E01D2012000E0CE
S1130CF80020C0B216F07F0618215148FFF7E7F923
S1130D080028F9D14F480068C009C00130434D4953
S1130D18086031E0802E01D2012000E00020C0B23A
S1130D2816F07F0619214648FFF7D1F90028F9D1B2
S1130D384A480068C009C0013043484908601BE0BC
S1130D4844480068800810F0010090F00100C0B227
S1130D583D48006830F0300050F010003A4908600F
S1130D68C6F3C310FFF773FA050055EA06023D49B6
S1130D783648FFF7BCF9FFE770BD00000148E801F9
S1130D8870B504000D00E4B2022C01D1012000E08A
S1130D980020C0B230212C48FFF7B6F9002803D14F
S1130DA85FF44000060012E0EDB22800002808D0E5
S1130DB8202802D0302804D007E05FF400000600A1
S1130DC805E05FF44000060001E0274806002148DA
S1130DD800683040B042FAD1700205D52348006853
S1130DE8800A10F0010000E0012070BD0005080031
S1130DF870B504000D001600E4B2022C13D1EDB254
S1130E08002D06D04FF4806019490860EDB21948E6
S1130E180560F6B2002E06D02900C9B22000C0B27F
S1130E28FFF7AEFF00E0012070BD0000800910004C
S1130E3830410E4094400E4070400E4074400E40C5
S1130E4840410E4010400E4024400E4030400E40B9
S1130E5860400E4090400E4020400E4018400E4026
S1130E689C400E40FF0700F0FF03C107A0400E405E
S1130E78A8400E4064400E4038B500F00FF8040056
S1130E881F480068C0F308200500681CB4FBF0F490
S1130E981C480460200032BD1B4870471B49096880
S1130EA811F0070102290CD00FD3042901D004D36F
S1130EB80BE01749096808000AE04FF400410800EC
S1130EC806E014490968080002E0134909680800A3
S1130ED812490968C1F30421491CB0FBF1F07047B9
S1130EE80F48006850F470000D49086070474FF4CB
S1130EF8004070474FF47A7070470548006870479F
S1130F0808410E401C0A002000F0490294400E409B
S1130F1818000020140000201C00002000410E408E
S1130F2888ED00E0DFF820000068DFF8141008609E
S1130F38DFF818000068DFF80C100880704700001C
S1130F48000A0020200A002090400E4094400E40E1
S1130F5830B583B00400DFF860040078002801D0BD
S1130F68002055E000F032FA0500002D01D02800D9
S1130F784EE0DFF84814002000F03FFA0500002D89
S1130F8801D0280044E0DFF8380400F08AF90500AD
S1130F98002D01D028003BE0DFF824040068002875
S1130FA801D10B2034E0DFF814044068DFF814148E
S1130FB80880DFF80804C068DFF8081448800020B7
S1130FC8DFF8001488800020DFF8F813C880DFF801
S1130FD8F4030088DFF8EC130881DFF8E80340889D
S1130FE8DFF8E01348810120DFF8CC130870DFF83C
S1130FF8D4030088DFF8CC134988484301900020C3
S11310080090002300220021002000F041F8002075
S11310183EBD0100DFF8A0030078002801D10120BB
S113102803E0DFF8A00308600020704730B4040030
S1131038DFF884030078002801D1012026E0DFF8D6
S11310488403008892B212FA84F5A84207DBDFF819
S1131058740340889BB213FA81F5A84201DA04208C
S113106814E092B2002A02D09BB2002B01D10520D1
S11310780CE0DFF850038480DFF84803C180DFF810
S113108844030281DFF83C034381002030BC7047ED
S11310982DE9FC4F87B080460E00139FDFF8180334
S11310A80078002801D10120F8E0DFF81403006873
S11310B8002801D10120F1E0DFF80003407C00287A
S11310C801D00A20EAE00024DFF8F0028068C008B2
S11310D80490DFF8E802007C012803D19DF8200081
S11310E8019008E09DF82000002802D10120019019
S11310F801E0002001900198002801D0FF2500E0BC
S11311080025B048C0888619AD480068B6B204996D
S113111801FB06000590002F00F0BF80A948008954
S11311281FFA88F8B0EB0800B84206D2A54800892F
S11311381FFA88F8B0EB080A00E0BA46B7EB0A07CA
S1131148A048808810EB08080598049901FB04005E
S11311588346BAF1080F35D21AFA88FA019800289A
S113116818D01FFA88F8D04580F07F801FFA88F8D5
S11311785FEAE80010F80B00012118F0070291401B
S113118808431FFA88F85FEAE80101F80B0018F130
S11311980108E6E71FFA88F8D04566D21FFA88F8EE
S11311A85FEAE80010F80B00012118F007029140EB
S11311B888431FFA88F85FEAE80101F80B0018F180
S11311C80108E7E71FFA88F818F0070003901FFAE8
S11311D888F81BEBE80B039800281BD09BF8000049
S11311E88146012003998840401E8DF800009DF82F
S11311F8000010EA09099DF8000035EA000050EAE9
S113120809098BF800901BF1010B0398D0F1080031
S1131218BAEB000A5FEADA000290029800280DD0BF
S113122802980690EDB22A000699584600F038F95B
S11312380298BAEBC00A029810EB0B0BBAF1000F34
S113124813D09BF800008146012010FA0AF0401ED2
S11312588DF800009DF8000039EA00099DF80000A7
S1131268284050EA09098BF80090574814FA86F187
S11312784911554A14FA86F35B1152F823200123C5
S113128814EB060C1CF01F0C13FA0CF31A4340F869
S1131298212000208046641C3DE7002009B0BDE8F9
S11312A8F08FF8B50400464B4448C2684348416887
S11312B84248424DAD69A84741480068002801D119
S11312C80B200BE03E48006820601025FF263E4FA7
S11312D832002900380000F0E3F80020F2BD2DE9BF
S11312E8F04F85B035488068C008039036480768D1
S11312F85FF00108002005000020040060192F4950
S1131308C96888422FD2F80701D5641C1EE0002C56
S11313181BD02B480068039901FB05000290019437
S1131328009526484368002202992448DFF88CC0B7
S1131338DCF820C0E0470600002E01D0300037E07A
S1131348601C45190020040000E06D1C601910F0B1
S11313581F0F01D07F08D1E71B4850F82800070069
S113136818F10108CAE7002C16D01548006803993B
S113137801FB05000290019400951048436800227F
S113138802990E48DFF834C0DCF820C0E0470600B4
S1131398002E01D030000BE05FF010095FF0000A66
S11313A8DFF824B052464946584600F079F8002040
S11313B805B0BDE8F08F0000240A00206C09002065
S11313C8F4090020D4090020C409002038B52D4DA3
S11313D82D48007800280ED101202B490870286870
S11313E8002808D0286880470400002C01D0200079
S11313F802E02D1DF3E7002032BD2DE9F041040081
S11314080D0021480078002802D12048060010E089
S1131418012C0CDA2C271F482C2101FB04083A0064
S11314284146280000F070F80020060001E01A4840
S113143806003000BDE8F081F8B5040012480078D1
S1131448002802D11148050019E011480068012854
S113145813DA2C260F480E4909682C2202FB0107CF
S11314680B480068401C0A49086032002100380013
S113147800F04AF80020050001E0084805002800AB
S1131488F2BD000000000020220A0020050011809F
S1131498F009002040090020020011800100118099
S11314A862F30F2262F31F42401810F0030308D0BE
S11314B8C91A1FD3DB0748BF00F8012D28BF20F83D
S11314C8022D130030B414461546103928BF20E9FC
S11314D83C00FAD8490728BF20E90C0048BF40F867
S11314E8042D890028BF20F8022D48BF00F8012DDB
S11314F830BC7047C91818BF00F8012DCB0728BFA6
S113150800F8012D7047000062B38B0708D0521E03
S113151811F8013B00F8013B00F024808B07F6D159
S1131528830740F0208000BF103A07D330B4B1E8F5
S11315383810103AA0E83810F9D230BC530724BF49
S1131548B1E80810A0E8081044BF51F8043B40F87B
S1131558043BD20724BF31F8022B20F8022B44BFE6
S11315680B7803707047083A07D3B1E80810083AB3
S113157840F8043B40F804CBF7D25307E4E70000F3
S113158872B6DFF8B003006810F1010F06D0DFF877
S1131598A4030068401CDFF89C130860DFF8940378
S11315A800687047DFF88C03006800280FD0DFF864
S11315B884030068401EDFF87C231060DFF874039E
S11315C800680100002900D162B6080000E000208C
S11315D87047032801DA012100E00021C9B2DFF8CD
S11315E8581311EB001040687047032801DA0122F0
S11315F800E00022D2B2DFF8402312EB001251605F
S11316087047DFF8380300687047DFF83413086060
S11316187047DFF8301309688143DFF82823116025
S11316287047DFF8201309680143DFF818231160B5
S11316387047DFF8140300687047F8B5FFF7A0FF98
S1131648FFF7F7FF040060072DD50120DFF800132A
S11316580870FFF7D6FF06000420FFF7DAFFDFF86B
S1131668FC020068301A0500280000F029F800F090
S1131678F7F8300000F00FF9FFF7C3FF0600B7488A
S11316880068301A05000120FFF7A3FFB349096871
S1131698401A0700AF480078002801D0AF42DBD3D6
S11316A80020AB490870E00707D50120FFF7ADFF1C
S11316B8A9480068401CA8490860FFF773FFF1BDFA
S11316C8F0B400210A00042A80F2C88000219F4B4C
S11316D8282404FB023359779C49282303FB02116D
S11316E8097F002900F0B8800021984B282404FBC6
S11316F80233D3E90045A94212D801D3A0420FD23C
S11317089249282303FB0211D1E900450021241A38
S11317188D418E49282303FB0211C1E900459BE052
S11317288A49282303FB0211C97F002906D1002115
S1131738864B282404FB0233197780E08349282345
S113174803FB0211D1E900458049282303FB021158
S1131758D1E902670021361A8F41A4197D417B49DA
S1131768282303FB0211C1E900457849282303FB18
S113177802110969012931DB7449282303FB021189
S11317884969724B282404FB02331B6959186F4BAF
S1131798282404FB023359616C49282303FB0211F2
S11317A84969F4294BD36949282303FB0211D1E978
S11317B80045641C55F100056449282303FB021104
S11317C8C1E900456149282303FB02114969F43939
S11317D85E4B282404FB0233596130E05B4928231B
S11317E803FB02114969594B282404FB02331B6982
S11317F8C91A564B282404FB023359615349282338
S113180803FB02114969F42919D35049282303FB1E
S11318180211D1E90045641E75F100054B492823DE
S113182803FB0211C1E900454849282303FB0211BF
S11318384969F439454B282404FB02335961434967
S1131848282303FB02118969002905D001213F4B94
S1131858282404FB02335977521C34E7F0BC704740
S113186810B500200400042C14DA3848282101FBA0
S11318780400407F00280BD03448282101FB0400D1
S1131888016A2000314A282303FB04229269904705
S1131898641CE8E710BDF8B506005FF0FF345FF09C
S11318A8FF3500200700042F1BDA2848282101FBF4
S11318B80700007F002812D02448282101FB0700D4
S11318C8D0E90023AB420AD801D3A24207D21F4869
S11318D8282101FB0700D0E9002314001D007F1C08
S11318E8E1E700201B4908705FF0FF305FF0FF312B
S11318F88D4201D184421AD07FF0640000218D42C8
S113190803D801D3844200D202E07FF064040025A6
S1131918124806600420FFF778FEA1190120FFF79A
S113192864FE01200B4908700420FFF77AFEF1BD1C
S113193800000000040A002040200440082004405D
S113194820200440242004401820044020080020BB
S1131958250A0020260A0020180A0020140A00205C
S113196800186C6C10CE3808600C000000000000F1
S11319787C307C7CC6FE7CFE7C7C000070001C7C79
S11319887C7C7E7C7EFEFE7CC63C78C606C6C67C15
S11319987E7C7E7C7EC6C6C6C6C6FE7C007C1000E5
S11319A80C00060060003800060000060C00000069
S11319B800000000000000000000003018188C002F
S11319C80000000000186CFEFC6A2C1830186C1813
S11319D8000000C0C638C6C6C606C6C0C6C61818A3
S11319E8387C38C6C6C6C6C6C60606C6C618306615
S11319F806EECEC6C6C6C6C618C6C6C6C6C6C00C79
S1131A08066038000C00060060000C00061830065A
S1131A180C0000000000000018000000000000187E
S1131A281830D60000000000001848FE162E2C18A6
S1131A381830381800000060C63060C0C60606605A
S1131A48C6C618181C7C70C6F6C6C606C6060606A0
S1131A58C618303606FEDEC6C6C6C60618C6C6C6CC
S1131A686CC6600C0C606C00043C3E3C7C3C3C3C0A
S1131A783E0000660C6E3E3C3E3C363C186666C62C
S1131A8866667E1818306200000000000018006CBA
S1131A987C10DC001830FE7E1C7E0030C6303070AE
S1131AA8FE7E7E307CFC00000E00E070F6FE7E06B2
S1131AB8C61E1EF6FE18301E06D6F6C67EC67E7CE8
S1131AC818C6C6D638FC300C1860C6000060660616
S1131AD866660C66661830360CD6666666666E06EA
S1131AE87C6666C63C66300C00600000000000009E
S1131AF8000000FED0E866001830387E1C7E1C18F2
S1131B08C63018C0C0C0C618C6C018181C7C7030AF
S1131B1876C6C606C60606C6C618303606C6E6C65D
S1131B2806B6C6C018C6C6FE6CC0180C30600000E5
S1131B38007C6606667E0C7C6618301E0CD66666CB
S1131B483E56063C186666D6187C181818300000ED
S1131B5800000000001800FE7EAC660030186C1807
S1131B6818001C0CC6300CC6C0C6C60CC6C618184D
S1131B78387C380006C6C6C6C60606C6C618366603
S1131B8806C6C6C60666C6C618C66CEEC6C00C0C23
S1131B98606000FE0066660666060C6066183636E7
S1131BA80CC666660626066018663CD63C600C18A9
S1131BB818300000000000000018006C10E6DC007B
S1131BC8600C00180C001C067C78FE7CC07C7C062B
S1131BD87C7C000C70001C307CC67E7C7EFE06FC7F
S1131BE8C63C1CC6FEC6C67C06DCC67C187C38C649
S1131BF8C67EFE7CC07C00FE007C3E3C7C3C0C3EE9
S1131C0866701C6638C6663C065C063E707C18FC2A
S1131C18663E7E3018180000000000000000000036
S1131C2800000000000000000000000000000000A8
S1131C380000000000000000000000000000000098
S1131C480000000000000000000000000000000088
S1131C580000000000000000000000000000000078
S1131C680000000000000000000000000000000068
S1131C780000000000000000000000000000000058
S1131C88012110F01F029140994A40B2430942F8D9
S1131C982310704772B69748006810F1010F04D0FA
S1131CA894480068401C934908609248006870474B
S1131CB89048006800280CD08E480068401E8D4A61
S1131CC810608C4800680100002900D162B6080041
S1131CD800E0002070478848006870472DE9F04FFD
S1131CE885B00025002600275FF000085FF0000992
S1131CF801A88249B1E80C10A0E80C100C390C3882
S1131D085FF0000A5FF0000B7D480068C00705D447
S1131D1801217C48FEF71FFB012006007A48FEF7E4
S1131D2874FD0400E4B2032C01D0012080467748F6
S1131D380068400601D40120814603217248FEF759
S1131D48F3FD7348FEF7F8FA009072480068C0077C
S1131D5805D401216E48FEF7FEFA01200700FFF7BB
S1131D6899FF6D480068C00714D56B48006882461F
S1131D786A4800688346002067490860002067496C
S1131D88086040F2FF70664908601D20FFF778FF7D
S1131D980120050000208DF8060000208DF80700BA
S1131DA808208DF8080001A800F0CEF800F038F8F3
S1131DB8FFF77EFFEDB2002D0AD000995448FEF7D4
S1131DC8C2FA5548C0F800A05448C0F800B002E070
S1131DD8002000F0B0F8FFB2002F03D000214C48D7
S1131DE8FEF7B9FA5FFA88F8B8F1000F04D02100B9
S1131DF8C9B24548FEF798FD5FFA89F9B9F1000FB1
S1131E0804D0002200210120FEF76CFEF6B2002E59
S1131E1803D000213B48FEF79EFA05B0BDE8F08FD9
S1131E2870B508264FF480503E4908603D48006864
S1131E3840003C490860002812D000F03EF8050034
S1131E4800F03BF88542FBD000F037F80500354830
S1131E58006800F037F800F030F8451B002DE5D095
S1131E683048006840082F4908602E48006804007C
S1131E783000461E00281FD06408002C1CD02948B6
S1131E88006820432749086000F017F8050000F0AF
S1131E9814F88542FBD000F010F8050021480068CA
S1131EA800F010F800F009F8A842E1D01D480068D5
S1131EB8A0431C490860DBE770BD80B5FFF70BFF42
S1131EC802BD00000138FDD8704700000100154B21
S1131ED800290CD0013988221202003251431A68B1
S1131EE8C80AD20A5043800901D00138FDD8704786
S1131EF880E200E0040A002008200440D8330000EF
S1131F08B0400E400005080005001E0090400E4039
S1131F1880091000F0400E400020044024200440B2
S1131F2820200440100000208B0013EB401313F111
S1131F3884431A60704710B50400E4B222000021FB
S1131F480F48FFF7F1FF10BD0178427851EA82018A
S1131F58827851EA0211C27851EA4211027951EAAF
S1131F680221427951EA0231827951EAC231C279B5
S1131F7851EA0241027A51EA4241014A116070472A
S1131F88002004408B0013EB401313F184431A60C0
S1131F98704738B504000D00E4B2002C01D13F208D
S1131FA81CE0E4B2012C02D14FF4784016E0E4B20C
S1131FB8022C02D14FF47C6010E0E4B2032C02D16D
S1131FC84FF47C400AE0E4B2042C01D1002005E07F
S1131FD8E4B2052C01D1FF2000E00020284110F0D4
S1131FE80100002229007548E4B2302303FB0400F1
S1131FF80C30FFF7C7FF31BD38B504000D00E4B25B
S1132008002C01D13F201CE0E4B2012C02D14FF492
S1132018784016E0E4B2022C02D14FF47C6010E060
S1132028E4B2032C02D14FF47C400AE0E4B2042C5D
S113203801D1002005E0E4B2052C01D1FF2000E025
S11320480020284110F00100012229005B48E4B275
S1132058302303FB04000C30FFF794FF31BD10B4A8
S1132068C0B2002801D13F221CE0C0B2012802D12D
S11320784FF4784216E0C0B2022802D14FF47C62D1
S113208810E0C0B2032802D14FF47C420AE0C0B287
S1132098042801D1002205E0C0B2052801D1FF229D
S11320A800E000220A4112F0010201228A40434B57
S11320B8C0B2302404FB00339A6110BC704710B5D9
S11320C886B0002468463E4991EC060B80EC060B6A
S11320D801213C48FEF73FF93B48029069463B48DA
S11320E800F0EEF80A203A4908603A48006830F0EF
S11320F81F2050F00B2037490860200006B010BD9F
S113210870B504000D000026002D12D0012D02D058
S11321182000C00706D521782C4800F061F96D1E0F
S1132128641CF1E72188294800F060F9AD1EA41C5D
S1132138EAE7294800688006FBD5300070BD10B571
S11321480024FFF7CBFD200010BD38B5040000259E
S11321582000FFF7BBFE280032BD70B504000D0057
S1132168160032002900200000F0AAF9002801D046
S11321781A4800E0002070BD10B500240121184859
S1132188FEF7E9F8200010BD2DE9F84304000D001E
S113219816001F005FF00008F6B2002E0BD10420D1
S11321A881463B004A46D2B229002000C0B200F062
S11321B8FAF9404600E00B48BDE8F28300A000406D
S11321C88033000000320400E06735000004014059
S11321D87404014078040140100401400200138093
S11321E8002508000100138070B504000D000026C6
S11321F829002000C0B2FFF7FFFE300070BD70B5A3
S113220804000D00002629002000C0B2FFF7C1FE1B
S1132218300070BD70B504000D00002629002000B0
S1132228C0B2FFF71CFF300070BD000010F1C0629F
S11322381160704710F180621160704770B5040036
S11322480D00160029002000FFF7F4FF31002000DC
S1132258FFF7ECFF70BD2DE9F04180460F00160032
S1132268002F03D15648FEF7C3F807008020A0FBCF
S113227807013200002300F01BFAB0F5807071F1F9
S1132288000104000D0014F1800055F1000130F044
S1132298FF0431F0000520006FF3D600002801D1B7
S11322A8012000E00020C0B24648002104400D404F
S11322B82200444918F11400FFF7C0FFBDE8F0817B
S11322C838B504000D004048844202D03F48844297
S11322D801D1012000E00020C0B2200000F042F843
S11322E8A87B002802D04FF4806000E00020216819
S11322F8B5F91020104350F0010008432060287DF0
S1132308002802D05FF0005000E000202168084354
S11323182060A87C002803D0E87C50F08000A065E9
S1132328287B50F480506060AA6869682000FFF731
S113233892FF687B002801D01020E060A87D000788
S113234810F0E040E97D090511F4E0010843206636
S1132358687D002803D0206850F4803020602878F5
S1132368E06031BD1849884202D01849884201D139
S1132378012100E00021C9B240F6AA61C160002130
S1132388016041F205014160002181600021416141
S11323980021C1640E4981640021416700218167DD
S11323A80021C1670849884201D100210165002143
S11323B881650649884201D10021C1657047000042
S11323C840410500F8FF7F0000000140000401407F
S11323D8F9FF010001690906FCD5C069C0B270475C
S11323E802695206FCD5C9B24163704702695206B4
S11323F8FCD589B2C163704710B5FEF7E7FF040046
S1132408002C00D0FEE70020FEF7A2FD0400002CFB
S113241800D0FEE7264800F0CBF90400002C00D0D9
S1132428FEE77FF07F402249486000202049886009
S113243820491F4800F0F7FB10BD80B5FEF74FFF99
S113244801BD80B51A4800F03AFA05201A49086017
S113245802201A49086001BD1CB50400200000F0E0
S113246803FC0021019115490968009112490B6880
S1132478020021000E4800F088FB104800680C494F
S113248891F825100A4A92F82620511808180B4981
S1132498086013BD80B57B230848026805210448F9
S11324A800F0FDFB05480068C01C0449086001BD34
S11324B898090020A8330000F8090020FC0900202E
S11324C803000020704700008B0013EB401313F146
S11324D884431A60704738B504000D00E4B2002C38
S11324E801D13F201CE0E4B2012C02D14FF4784022
S11324F816E0E4B2022C02D14FF47C6010E0E4B29E
S1132508032C02D14FF47C400AE0E4B2042C01D13C
S1132518002005E0E4B2052C01D1FF2000E00020F2
S1132528284110F0010000222900DFF88001E4B2FC
S1132538302303FB04000C30FFF7C6FF31BD38B568
S113254804000D00E4B2002C01D13F201CE0E4B2E9
S1132558012C02D14FF4784016E0E4B2022C02D1E7
S11325684FF47C6010E0E4B2032C02D14FF47C40B9
S11325780AE0E4B2042C01D1002005E0E4B2052C01
S113258801D1FF2000E00020284110F001000122C1
S11325982900DFF81801E4B2302303FB04000C30EF
S11325A8FFF792FF31BDF8B504000D0016001F00B7
S11325B8E4B2002C01D13F201CE0E4B2012C02D18A
S11325C84FF4784016E0E4B2022C02D14FF47C6058
S11325D810E0E4B2032C02D14FF47C400AE0E4B2E8
S11325E8042C01D1002005E0E4B2052C01D1FF2020
S11325F800E00020284110F00100F6B2002E0CD0B3
S1132608002F05D029002000C0B2FFF798FF04E08E
S113261829002000C0B2FFF75EFF082D19D2234815
S1132628E4B2302101FB040040680F212A00D2B231
S1132638920091408843F6B22900C9B2890016FA7B
S113264801F108431949E4B2302202FB041148603D
S11326581AE01648E4B2302101FB040080680F2117
S11326682A00083AD2B2920091408843F6B229006F
S11326780839C9B2890016FA01F108430B49E4B2D2
S1132688302202FB04118860F6B2002E0CD1002F10
S113269805D029002000C0B2FFF751FF04E029004B
S11326A82000C0B2FFF717FFF1BD000000A00040F2
S11326B81B4213D1094236D12AB18446B0FBF2F049
S11326C802FB10C2704700F031BBFCD30022002388
S11326D870470B000200002100207047904271EB04
S11326E8030CF6D370B5B1FA81F4B3FA83F52C1B55
S11326F8A340C4F1200532FA05F63343A2405FF043
S11327080046E64002E05B085FEA3202841A71EB95
S1132718030524BF204629467641F4D302000B0062
S11327283000002170BD012ACFD970B5140C20D017
S1132738B1FA81F4B2FA82F5C4F120046419B4F14F
S11327482006D6D3B2405FF00044F440002502E0EE
S113275852085FEA3303C61A71EB020E24BF3046EF
S1132768714664416D41F3D302000B002000290037
S113277870BD0C46B1FBF2F102FB11452D0445EA8C
S11327881045B5FBF2F402FB145580B240EA054546
S1132798B5FBF2F002FB105240EA044070BD0000A1
S11327A810B4040C0C70040A1470187010BC704730
S11327B870B586B00400002C01D1052029E0002062
S11327C860607FF07F40A0606846FEF722FC050049
S11327D8002D01D028001CE0009820600E480FC886
S11327E801AE86E80F0000980088401E0390009808
S11327F84088401E049001A9200000F011F805004B
S1132808002D01D0280004E00449200000F00BFA50
S1132818280006B070BD000098330000A8330000FB
S1132828F0B585B004000D00002C01D0002D01D1B5
S1132838052042E02868A968884203DA6868E968DC
S1132848884201DB042038E02868216889888842A6
S113285810DB68682168C98888420BDB2068008916
S1132868401EA968884205DB20684089401EE96843
S1132878884201DA032020E06868E9680818431CE4
S11328889BB22868A9680818421C92B268680100BB
S113289889B2286880B2FEF7C9FB06002868009050
S11328A868680190A8680290E868039068460FC8B1
S11328B814F10C0787E80F00300005B0F0BDFEB531
S11328C80400002C01D1052023E002AB0DF109021C
S11328D80DF10A01606800F02CF8200000F01AF8E5
S11328E80700002F01D0380013E020680089050094
S11328F820684089060006FB05F001909DF8080051
S113290800909DF809309DF80A2000210020FEF768
S1132918BFFBFEBD10B50400002C01D1052007E063
S1132928206843882068028800210020FEF77EFB87
S113293810BDF8B504000D0016001F003B0032005E
S113294829002000FFF72CFFF1BD70B584B0040006
S11329580D001600002C01D1052021E032002900C9
S113296814F10C0000F0E3F9002801D1012017E06C
S113297802AB0DF109020DF10A01A068FFF710FF7F
S1132988012001909DF8080000909DF809309DF8F9
S11329980A203000010089B2280080B2FEF778FBD3
S11329A804B070BDFEB504000D0016001F00002C15
S11329B801D1052021E03200290014F10C0000F0B7
S11329C8B6F9002801D1012017E002AB0DF1090284
S11329D80DF10A013800FFF7E3FE012001909DF88C
S11329E8080000909DF809309DF80A203000010085
S11329F889B2280080B2FEF74BFBFEBD2DE9F64FE5
S1132A0883B004001D005FF0000B002C01D10520E9
S1132A18B8E09DF80C00202803DB9DF80C007F2803
S1132A2801DB0220AEE094F82800022810D19DF8BA
S1132A380C00303807009DF80C003A2801D10A2010
S1132A4807009DF80C00202806D10B20070003E09E
S1132A589DF80C0020380700208C401EBFB2B842F5
S1132A6801DA02208EE0E0690290E0690190E069F1
S1132A7800900020804694F825001FFA88F880B258
S1132A88804579D294F82200012802D0022805D082
S1132A980AE00298BFB2385C81460AE00198BFB2E6
S1132AA830F81700814604E00098BFB250F82700B8
S1132AB881460020824694F824001FFA8AFA80B2DC
S1132AC8824531D25FEAC97011D515FA88F20498A3
S1132AD810FA8AF12000FFF738FF0600022E01D30E
S1132AE830004FE0002E18D11BF1010B15E09DF8C2
S1132AF83800002811D0636815FA88F2049810FA8F
S1132B088AF12000FFF74EFF0600022E01D33000A1
S1132B1838E0002E01D11BF1010B1FFA89F95FEA95
S1132B2859091AF1010AC6E71FFA8AFA94F8240027
S1132B3894F827100818824518DA9DF838000028F8
S1132B4811D0636815FA88F2049810FA8AF1200003
S1132B58FFF728FF0600022E01D3300012E0002EF2
S1132B6801D11BF1010B1AF1010ADDE794F82300E6
S1132B783F1818F101087EE7BBF1000F01D10120CD
S1132B8800E0002005B0BDE8F08F2DE9F44F82B0D5
S1132B9804000D001E005FF00008002C01D0002D79
S1132BA801D105203DE094F82800002801D1022035
S1132BB837E0B2460C988346002081460298814546
S1132BC829D219F805000A2808D1B24694F8250034
S1132BD894F82610081810EB0B0B19E09DF8340034
S1132BE800905B46524619F805102000FFF706FFCF
S1132BF80700022F01D3380013E0002F01D118F188
S1132C08010894F8240094F82710081810EB0A0A0D
S1132C1819F10109D2E7B8F1000F01D1012000E050
S1132C280020BDE8FE8F2DE9F04104000D00002CC2
S1132C3801D1052015E0002D0AD11026002714F132
S1132C481C083A0031004046FEF72AFC052008E03B
S1132C58102614F11C07320029003800FEF754FC32
S1132C680020BDE8F081000000F10103810704D0D1
S1132C7810F8011B89B18107FAD10268B2F1013158
S1132C88914311F0803F04BF50F8042FF6E710F881
S1132C98011B11B110F8011BFBE7C01A70472DE99D
S1132CA8FE4304000D0016001F00002C01D105206E
S1132CB839E02069864202DBA069B04201DA0120CA
S1132CC831E0AF4202DAA8463D0047466069A842AF
S1132CD802DBE068874201DA012024E0E0688542EB
S1132CE801DAE06805006069B84201DA6069070042
S1132CF8781B401C814602AB0DF109020DF10A0153
S1132D08A068FFF716FECDF804909DF8080000901F
S1132D189DF809309DF80A203000010089B2280086
S1132D2880B2FEF7B5F9BDE8FE83000070470300E2
S1132D38002B0BD01868814208DB9868884205DBB1
S1132D485868824202DBD868904201DA002000E029
S1132D580120704710B58CB0FFF7F1F9FFF7AFF910
S1132D68FFF70AFA0023002208210220FFF70CFAD1
S1132D780023002206210220FFF706FA002300227E
S1132D880E210320FFF700FA002300220F2103205D
S1132D98FFF7FAF9002300220D210320FFF7F4F9C5
S1132DA8802200210FF2D900FFF7D7F90400002C84
S1132DB801D020002CE04948009001208DF8100033
S1132DC800208DF811008020019080200390019844
S1132DD802900FF2550005900FF2B50006900FF21D
S1132DE8F50007900FF2491008900FF20D100990A2
S1132DF80FF221000A906846FEF71EFB0400002C1F
S1132E0805D10121684600F00FF800F01EF82000F3
S1132E180CB010BD38B504000025FFF790F9FFF792
S1132E284EF9280032BD000038B504000D00EDB29B
S1132E38002D04D00F210320FFF7D6F903E00F215A
S1132E480320FFF7DCF9002032BD80B50E210320F2
S1132E58FFF7CAF90620FFF778F92148007850F0FF
S1132E680400ADF8000002216846FFF749F9022082
S1132E78FFF76BF90E210320FFF7C1F9002002BD0B
S1132E8880B50D210320FFF7C5F9002002BD00001D
S1132E9870B40400C80802FB00F5802901D0114869
S1132EA815E01148114E3668AE19B04203D200201D
S1132EB818600F480BE00D48006818600120B5FB46
S1132EC8F0F00A4E36688019084E3060002070BC55
S1132ED8704700000200074870470000683300008C
S1132EE8230A002002001180200800200800002086
S1132EF801001180040011802DE9F84F04000D0031
S1132F0816001F00A84600208146B9450DD25FF07F
S1132F18100A5FF0000B5A4651464046FEF7C0FAC5
S1132F2818F1100819F10109EFE70020BDE8F28F44
S1132F382DE9F84F04000D0016001F00DDF828A045
S1132F48DDF82C80AB461AF1010A0E210320FFF7A5
S1132F584BF90620FFF7F9F85FEA0A2050F0010060
S1132F68ADF8000002216846FFF7CAF80020814640
S1132F78C1451DD210215846FFF7C2F81BF1100BAA
S1132F88B8F10100814504D14FF6FF70ADF8000097
S1132F9807E019EB0A00401C000250F0FF00ADF8EE
S1132FA8000002216846FFF7ABF819F10109DFE7D1
S1132FB80220FFF7CAF80E210320FFF720F90020AA
S1132FC8BDE8F28F890001EB401000F184400260F3
S1132FD87047890001EB401000F184400068704795
S1132FE872B62A48016811F1010F1CBF491C01601F
S1132FF8006870472549086818B1401E086000D168
S113300862B6704710B522480021016000222149A8
S11330184A620A610A600F224A60446854B1002176
S11330284160FFF7DDFF1C480168A1430160BDE86A
S11330381040DFE710BDF8B5184C01212046FFF712
S1133048C8FF050018BF0125012201212046FFF70A
S1133058B9FF13480068B0B10126FFF7C1FF0C4857
S1133068076800210160FFF7C5FFFFF7CBFF3800B1
S113307818BFB847EDB225B9002201212046FFF751
S1133088A1FF3046F2BD0026F4E7D4E7040A002085
S1133098E80900200080084018300E40C8400E405F
S11330A818800840134908607047134909680800E4
S11330B81249096808407047010091FAA1F0B0FA72
S11330C880F0704770B50400002C11D02000FFF781
S11330D8F3FF05000120A8408443094850F825005F
S11330E8060030000028EFD02800C0B2B047EBE754
S11330F870BD000024A4004028A400401CA4004083
S1133108C008002010B5FFF7D0FF45F2555108401C
S113311804002000FFF7C6FF2000FFF7D3FF10BD0F
S113312810B5FFF7C2FF4AF6AA21084004002000A0
S1133138FFF7B8FF2000FFF7C5FF10BD10B515480D
S11331480068000624D5144804681448FFF742F9B7
S11331581349605410480068401C0F49086011481E
S11331680068401C0F4908600B480068082802D111
S11331780020094908600B480068092808DB00207A
S113318805490860002007490860002006490860CE
S113319810BD0000100001400C0A0020000001408E
S11331A8E0090020100A0020080A0020DFF838008F
S11331B800680047DFF830004068004700E000BFBF
S11331C8DFF8240040690047DFF81C00406A004724
S11331D8DFF81400C0690047DFF80C00C068004736
S11331E8DFF80400806800470009002019E050F85F
S11331F8041BCB0744BFA9F101035918121F00236C
S1133208042A41F8043BF9D25FEA827C0B4604D5D0
S11332184FF0000CA1F800C09B1CD10744BF00214B
S1133228197050F8042B002AE1D1704741617047A6
S1133238C068704710B50748FFF7FAFF0400E006B6
S113324806D510210348FFF7F1FF01200249087051
S113325810BD000000800140270A002080B5FFF758
S1133268CBF8FFF7EEF80648FFF7F6F8FFF712F980
S11332780448FFF7F1F8FFF7E0F8002002BD00BFAB
S1133288B8330000F033000010B450F8041B79B1CF
S11332980268436812180830DC0744BFA9F1010426
S11332A8E31852F8044B43F8044B091FF9D1ECE72F
S11332B810BC704710B5074979441831064C7C4452
S11332C8163404E00A68081D511888470146A142CB
S11332D8F8D110BD2C0000004C0000004EF68851B7
S11332E8CEF20001086840F470000860BFF34F8F05
S11332F8BFF36F8F4FF00070E1EE100A70470000C3
S1133308EDFEFFFF080A0000200000200000000076
S113331879FFFFFF200000004C010000000000209E
S11333280000000000F00BF8002801D0FFF7C2FFEE
S11333380020C046C046FFF791FF00F002F80120C4
S1133348704700F001B800000746384600F002F85C
S1133358FBE700002021090326311820ABBEF9E75A
S11333685368617270204C533031334237444830CB
S11333783320233100000000050000000000000095
S113338840420F000501000000000000000000009A
S11333980000000000000000000000000000000021
S11333A868190000200301640808020001000000F5
S11333B848656C6C6F20576F726C642100000000C4
S11333C80148804701480047E90E0000E533000042
S11333D8010000000500000000000000C046C046CF
S11333E8FFF77CFFFFF79EFF50726F6D77616400F3
S11333F8FFF7FEBFFFF7FEBFFFF7FEBFFFF7FEBFF5
S1133408FFF7FEBFFFF7FEBFFFF7FEBFFFF7FEBFE4
S1133418FFF7FEBFFFF7FEBFFFF7FEBFFFF7FEBFD4
S1133428FFF7FEBFFFF7FEBFFFF7FEBFFFF7FEBFC4
S1133438FFF7FEBFFFF7FEBFFFF7FEBFFFF7FEBFB4
S1133448FFF7FEBFFFF7FEBFFFF7FEBFFFF7FEBFA4
S1133458FFF7FEBFFFF7FEBFFFF7FEBFFFF7FEBF94
S1133468FFF7FEBF5D2D00000000000020000020D3
S1133478C0EA21010010000000F0490200800000A9
S1073488C0EA210170
S90333E5E4
